:020000020000FC
:1000000086CCB6C0189518950994B2C079C01895D9
:1000100081C01895189539C1189518951895189597
:100020001895C6C01895697A40744042405B0290AA
:10003000FFFF7F0000B9FFFFFFFFFFFFFFFFFFFF94
:100040009FB68A9409F4EAE29FBE18959FB68A94F7
:100050009FBE189520FD959A21FDC09A22FD939A86
:1000600020FD949A21FD979A22FDAB9AE8E6832C15
:1000700024BC18958F12EACFA8959FB6409198009E
:10008000509197005F3F21F0450F4093980058F43E
:100090009FBE20FD949A21FD979A22FDAB9AEAE536
:1000A000832C24BC18959FBEEAE343E0842E4FEDD9
:1000B00044BD18958F12CACFEAE3852C20FD949891
:1000C00021FD979822FDAB9844BC1895A8951895EA
:1000D0008F12BCCFA89511FDBDCFE0916500852C96
:1000E00020FD949821FD979822FDAB9844BC27FDF4
:1000F000189520FD959821FDC09822FD939818959C
:100100009FB640916300415008F40E7F4093630016
:100110009FBE18959FB6409164004395409364003C
:100120005091840051FF0BC050918500539550931E
:10013000850029F450918600539550938600509184
:10014000840052FF03C05061509384004F7019F433
:10015000BB2019F0BA949FBE189540916600439554
:100160004093660040916700439540936700F3CF4A
:100170004CB55DB5829B0DC09FB65A5659BD48BD62
:1001800042E045BF48E048BF9FBE18959FB6046057
:100190000BC098B693FCFACF9FB63A0148B559B553
:1001A0005659641A750A106143E045BF9FBE189501
:1001B0009FB641B1403669F14038B1F1403A69F13A
:1001C000483A41F0483B79F0483F11F04F1321C0C5
:1001D00045ED20C067FC0DC0F3B94AEF10FD4FEFAD
:1001E0004093810016C067FC07C04091810043B96D
:1001F000F6CF4FEB409383005E2FE0918300419157
:10020000E093830043B9E73CE52F09F002C045E8DD
:1002100001C045EC46BF9FBE1895409182004F1328
:100220001461F0938200F5CF409182004395409392
:100230008200413019F473B06F2EEBCF423011F4CD
:1002400063B0E7CF433021F443B1423001F7E1CF4F
:100250004A3061F05E2FECEBE40F43B14083E52FB1
:100260005091C600540F5093C600D3CF43B1509164
:10027000C00056FD006157FD0062451B50E9450F67
:100280005093C0004093C600C4CF90E578ECBA9A72
:10029000C098949A1ED0E1F7BA98089594E674EB4A
:1002A000B99A9398979A15D0E1F7B998089598E775
:1002B00070EA9598AB9A0DD0E1F708959CE87CE838
:1002C000BA9AB99A9398949A04D0E1F7B998BA98DF
:1002D0000895F2BF82B78032E8F3959AC09A939A54
:1002E00094989798AB9860E1F2BFA89582B787176A
:1002F000E8F36A95C9F79A95089500D000D000D028
:100300009FE060E1F2BF81E088BFA89588B780FFD9
:10031000FDCF6A95B9F79A95A1F708958091B70036
:100320009091B80089569A4739F0C7EBD0E0E6E2E1
:1003300085918993C13DE1F70895F894EF93F5DF36
:10034000EF91789408958091600081BF0F7DC7EB95
:10035000D0E080E890E0A895E199FDCF67B760FD17
:10036000FACFC13D81F09FBB8EBB0196E09A6DB381
:1003700017F06993F0CF79917DBBF894E29A6713F7
:10038000E19A7894E8CFBCDF8FEF81BF0895000C2D
:10039000111CAA1C8A95D9F70895869FA12C969FB7
:1003A000A00CC11DDF1F879FA00CC11DDF1F979FE1
:1003B000C00DD11D089512FD8EC01F7EC301905344
:1003C000660B602763FD9DC007FD52C0C9EBD0E0FE
:1003D00001C093DF42D0BC01A895FF9FAA24C93B6E
:1003E00031F49FE160348BE5780798F441C0809147
:1003F000B90068178091BA00780760F792E2CB3BAA
:1004000041F08091BB0068178091BC00780710F321
:1004100090E2892EA89514FFFDCF1F7E1ED0080EF6
:10042000191EAF1E861B970B80569F4F815491401B
:1004300080F68A9479F783E0AADF1992A992CD3BDE
:1004400009F414D234DFCB3BC1F25ADF30DFCD3BAD
:1004500011F056DF2CDF77DF56C0C30103FF08958C
:10046000A3E0880F991FAA95E1F7089512FD33C004
:100470001F76C301903360F003FD11C0C0917F006F
:10048000D09180008C1B9D0B60F4CC27DD2716C01B
:10049000963028F0803C62E1960703FD78F3046013
:1004A000089560917B0070917C00C8E3D0E075DF17
:1004B000C73583E0D80710F0C7E5D3E0C0937900D3
:1004C000D0937A0001FF03C082E0B82EB4C08CE064
:1004D000B816BF1E0895E3011F7E8091C50080FB02
:1004E00017F9CC0FC295209649F3CE016DE373E066
:1004F000DCCFC3E07695679596958795CA95D1F739
:10050000089588E008278091BB009091BC0060911D
:10051000B9007091BA0003FDECDF80937F009093E7
:100520008000681B790B05D080937B0090937C0042
:10053000089585E595E00196A8959F3F890721F0EC
:10054000C0EEDCEF2ADFB9F70895F8948CB59DB5BD
:100550006091640078B77894903872FD6F1FC091F5
:100560006900D0916A00A0906B008093690090931D
:100570006A0060936B0000906C0010906D007091A9
:100580006E00C0936C00D0936D00A0926E00801935
:100590009109670B94306F0728F480E094E060E0E5
:1005A000D694C79490386F07A7E5B3E0F0F0A1E0C8
:1005B000B1E27D01A0E8BBEAFF9F771B0AC0771F6D
:1005C000001C111C78170906160618F0781B090A7A
:1005D000160AAA1FBB1FEE1CFA9489F7A095B095C6
:1005E000A63DBF0710F4A6EDB0E07D0180936F003B
:1005F0009093700060937100669597958795C09170
:100600006900D0916A00A0906B0073E347D0C0935B
:100610007200D0937300A092740090316F0718F0AD
:100620002F7B5FD002C0206497D014FD1FCFC091F4
:100630007900D0917A00CE15DF0508F0E701CC15DE
:10064000DD0508F0E60187E593E08C1B9D0B01F1C9
:10065000209601F11D7F116016FF04C0880F991FBD
:10066000CC0FDD1F689470E39F1370E280319F0709
:1006700028F0E89407977AE29F1370E2C09580957E
:100680001E01F8942C017093650027F97894089561
:100690001360E8CF1C7F78E66894F0CF879FC10D88
:1006A000DF1FAF1E979FC00DD11DAF1E679FD00DDE
:1006B000A11C089580916F0090917000609171006D
:1006C000C0917200D0917300A09074000895F2DF81
:1006D000C80FD91FA61EC80FD91FA61E02C0EADF69
:1006E000DDDF79B7072E7B7E79BF70E1F894DBBD43
:1006F000CABD78BF8CB59DB57894016060916400E7
:1007000078B7903872FD6F1FC81BD90BA60AA0924C
:1007100063000AF40E7F09BE089526FFD8CF8091AA
:100720006F0090917000C0917200D0917300C80F5B
:10073000D91FC80FD91F10C026FFD1CF80916F00DD
:1007400090917000C0917200D0917300879FC10D8D
:10075000DF1F979FC00DD11D70E1F894DBBDCABDAE
:1007600078BF8CB59DB50160F09363007894C81B89
:10077000D90B0AF40E7F0895279670E1F8948CB592
:100780009DB5C80FD91FDBBDCABD78BFA09263005D
:1007900001607894089514FD69DE00FDFCCF089592
:1007A000F5BD80E488BFE6E6959AC09A939A94983E
:1007B0009798AB980895829BF093660080916600AD
:1007C00085FF0895E0E0F894FCE185919491F0E0D4
:1007D000789401960297A8F3F894F7BBF4BBF1BBA9
:1007E00088E181BDF1BD8091600081BF09CA82E5C9
:1007F00082B985EC86BF0895F0938400F09385005C
:10080000F09386002F7D8FEF80939600F6BF0895BA
:100810008091C900853A31F48091C800803110F48C
:1008200088940895089408958091D0008A35E1F461
:100830008091CB008031C0F48091CC008823A1F05E
:10084000853190F48091CD00823070F48091CE009B
:100850009091CF00883360E0960730F0813860E0F7
:10086000960710F488940895089408958FEF809364
:10087000D0004FD560F080918700909188008093E0
:10088000C7009093C80085EA8093C90007C08FEF26
:100890008093C7008093C8008093C900A8DF0895A3
:1008A00081E080938400F0938500F09386002F7D93
:1008B0008FEF80939600F6BF08958091840080FFAB
:1008C00008958170826080938400F0938500F09396
:1008D0008600F6BF08958091840081FF089582FD0F
:1008E00008958091850090918600853C944058F150
:1008F00010D550F18DDF90F197DF08F462C280913E
:1009000084008F798C61809384008091870090911E
:10091000880080938A0090938B00F0938900F09375
:100920008C00F0938D008093990090939A00F0933F
:100930009700F0939800F0939400F0939B00F0934D
:100940009C00206230D50895809184008178809346
:10095000840026DF9ADCD4DC98DC08958091840042
:100960008D7F809384001CDF90DCCADC8EDCC8DCC9
:100970008CDC08958091840082FF089584FF08959F
:100980008F7E80938400C5D4F8F2809184008860C3
:100990008093840086FDB9C202D005D50895609188
:1009A0008A0070918B008091C7009091C800861BCF
:1009B000970B9F7093FD906FEC01AA27D7FF04C09F
:1009C000A395D095C195DF4FDD2319F4C23008F40B
:1009D00043C0CE0163E0880F991F6A95E1F7823327
:1009E00064E0960710F082E394E0AA2319F0909552
:1009F00081959F4FEC0160918C0070918D00DE011C
:100A0000A61BB70BB7FD09C0A03480E0B80780F083
:100A100079F0EB01C05CDF4F0BC0B095A195BF4FE3
:100A2000A03480E0B80720F019F0EB01C054D040AA
:100A3000C0938C00D0938D00809189008C0F80939F
:100A4000890060918A0070918B006D1F9927D7FDF6
:100A50009FEF791F7F700AC06091C7007091C80036
:100A6000F0938900F0938C00F0938D0060938A00DE
:100A700070938B0060918A0070918B008091870049
:100A800090918800681B790B7F7073FD706F609385
:100A90008E0070938F00DB01609187007091880059
:100AA0008091990090919A006093990070939A00B8
:100AB000681B790B7F7073FD706FCD0197FF03C0CA
:100AC000909581959F4F9923E9F48530D8F48091D2
:100AD0008A0090918B00C091C700D091C8008C17FC
:100AE0009D0781F4CB0197FF03C0909581959F4F9F
:100AF000992341F4833030F4F0939700F0939400FD
:100B000050D10895EB0180918A0090918B00609103
:100B1000C7007091C8008617970729F0F0939B00D3
:100B2000F0939C001FC080919B0090919C00692FC6
:100B30006B2767FF02C0882799278A0F9B1F97FDA5
:100B400007C0803060E1960748F080E090E106C081
:100B5000803060EF960710F480E090EF80939B0068
:100B600090939C00CE0160E09BD080939D00909379
:100B70009E00CD0164E094D060919D0070919E0034
:100B8000C92F861B970B6C2F672767FF0BC06C2F35
:100B9000692767FF07C0C7FF03C0882790E802C026
:100BA0008FEF9FE78F939F935DD0BC019F918F91B3
:100BB000DC01CB01CB2FA80FB91F6C2F692767FF72
:100BC00001C00BC06C2F6B2767FF07C0C7FF03C0B6
:100BD000AA27B0E802C0AFEFBFE780919B009091D9
:100BE0009C00C5E095958795CA95E1F764E058D0DB
:100BF000CB2FA80FB91F6C2F692767FF01C00BC04F
:100C00006C2F6B2767FF07C0C7FF03C0AA27B0E898
:100C100002C0AFEFBFE7BD01CC2777FF04C0C3958B
:100C2000709561957F4F862F872BB9F0772329F434
:100C3000862F8F3F20F019F000C08FEF00C0809307
:100C4000970061E0CC2309F061958091CD00882365
:100C500009F061956093940053C0F0939700F0936E
:100C600094004EC0C0918C00D0918D00AA27D7FF70
:100C700004C0A395D095C195DF4F88279927662793
:100C800070E0772329F08C0F9D1F6F1F7A95F9CFA5
:100C9000892F962FAA2319F0909581959F4F08953B
:100CA000762F73706695669597FF04C09095819531
:100CB0009F4F7068EC018827992777FF06C070382E
:100CC00051F08C0F9D1F7A95FACF772321F08C0F6E
:100CD0009D1F7A95FACF9695879596958795662369
:100CE00049F08C0F9D1F97FF03C08FEF9FE702C055
:100CF0006A95F5CF77FF03C0909581959F4F089532
:100D0000609187007091880088279927C091CC0056
:100D1000CC23B9F0860F971FCA95E1F79F70C09159
:100D2000CD00CC2331F066277727681B790BCB01E8
:100D30009F706091CA007091CB00860F971F9F70C3
:100D400004C088279927F093940080939000909393
:100D5000910060919400662339F01AF080509C4F06
:100D600002C0805094409F708093920090939300B3
:100D700001D008956627923040F011F48B3A28F0A4
:100D80008B5A924063956530B0F3913038F011F48E
:100D9000863520F06395663008F0662760939500ED
:100DA0000895FEDC2F7DF0939B00F0939C008091D2
:100DB00084008170809384008FEF80939600F6BF4B
:100DC00008952F7D809184008F7D8C6580938400B1
:100DD00081E080939F0088E390E08093AF00909340
:100DE000B000F093A000F093A100F093A200F09364
:100DF000A500F093A600F093AB00F093AC008091B7
:100E00008700909188008093A7009093A80080931A
:100E1000B1009093B2008093A3009093A40001D0FE
:100E200008958091A5009091A600809392009093E0
:100E30009300A0DF809195009091AF006091B00089
:100E4000CCD2089560918700709188008091A700AE
:100E50009091A8006093A7007093A800681B790B7D
:100E60007F7073FD706F0895EDDF8091AB009091FE
:100E7000AC00860F971F8093AB009093AC00089551
:100E8000E894CB0197FF03C0909581959F4F9923DC
:100E9000F9F48230E8F460918700709188008091C5
:100EA000A3009091A400681B790B7F7073FF04C0AE
:100EB000706F709561957F4F772351F4633040F4E4
:100EC0008091A20083958093A2008034E0F40AC050
:100ED000F093A20080918700909188008093A300F6
:100EE0009093A4008091A0009091A1008F5F9F4FEC
:100EF0008093A0009093A1008D3D62E0960708F0DA
:100F00006894889408950894089580919F00813092
:100F100009F413C0823009F42EC0833009F488C06C
:100F2000843009F4A5C0853009F4C3C0863009F4C3
:100F3000E4C0873009F0D3C117C184DFA1DF0EF40C
:100F4000CEC108F00895F093A000F093A100F093B3
:100F5000A20080918700909188008093B1009093C7
:100F6000B2008BEA92E08093A5009093A60082E005
:100F700080939F0056CF6091870070918800809188
:100F8000B1009091B200681B790B7F7073FF04C0B1
:100F9000706F709561957F4F7723E1F46430D0F4E2
:100FA0008091A00083958C3018F48093A000089560
:100FB000F093A0008091AF009091B000803860E085
:100FC000960708F08CC18C5F9F4F8093AF00909381
:100FD000B00027CF8091AF009091B000885F9F4F05
:100FE000813860E0960710F080E890E08093AF00D1
:100FF0009093B0008093CE009093CF00F093A50023
:10100000F093A600F093A000F093A100F093A2004B
:1010100060918700709188006093A7007093A8008A
:101020006093A3007093A40083E080939F00F9CEA7
:1010300009DF26DF0EF453C108F00895F093A000F5
:10104000F093A100F093A200F093AB00F093AC00FA
:1010500080918700909188008093A9009093AA00C6
:101060008093A7009093A80084E080939F00089548
:10107000FBDE6091A5007091A600685F7F4F7F70D6
:101080006093A5007093A60059D008F0CACEF093E3
:10109000A000F093A100F093A200809187009091AE
:1010A00088008093A3009093A40085E080939F0024
:1010B000B8CEDADEE5DE0EF412C108F008958091B4
:1010C000AB009091AC008093AD009093AE00F09394
:1010D000AB00F093AC00F093A000F093A100F0936C
:1010E000A20080918700909188008093A700909340
:1010F000A80086E080939F000895B6DE6091A50069
:101100007091A600685070407F706093A500709346
:10111000A60014D008F085CEF093A000F093A100B3
:10112000F093A20080918700909188008093A300A3
:101130009093A40087E080939F0073CE8091A000DD
:101140009091A1008F5F9F4F8093A0009093A1008A
:10115000803041F4923031F4F093A000F093A1007C
:1011600008940895889408957FDE8ADE0EF4B7C04F
:1011700008F0089560918700709188008091A9001F
:101180009091AA00681B790B7F7073FF04C0706F89
:10119000709561957F4F772309F0A1C0613208F007
:1011A0009EC06091AD007091AE00CC2777FF04C067
:1011B000C395709561957F4FC093CD006093AD004E
:1011C0007093AE008091AB009091AC00CC2331F4D1
:1011D00097FF85C0909581959F4F02C097FD7FC076
:1011E0008093AB009093AC006817790718F4861BC6
:1011F000970B04C0DB01A81BB90BCD01992309F0A3
:101200006EC0813208F06BC06091AD007091AE008D
:101210008091AB009091AC00860F971F96958795B3
:101220008093AD009093AE006091AD007091AE00E0
:10123000643B80E0780708F452C0DB01C1E0B031C4
:1012400030F4A60FB71FC395C531C8F348C0A050EE
:10125000B041CD01880F991F6817790708F4CA9526
:10126000CC23E9F1C093CC00AA27BB278C2FA60F73
:10127000B71F8A95E1F7A050B041B7FF03C0B09502
:10128000A195BF4FBB2359F5A13448F56091870064
:1012900070918800AA27BB27C091CC00A60FB71F6A
:1012A000CA95E1F7BF708091CD00882331F488277B
:1012B00099278A1B9B0BDC01BF70A093CA00B093D7
:1012C000CB006EDA809184008F79809384008AE568
:1012D0008093D00038D81DD008F436CB10CB809145
:1012E00084008178809384005BDACFD709D8CDD78A
:1012F00007D8CBD705D8C9D7089586BF9FEFA89543
:1013000086B787FD04C09A95D1F70894089588940C
:101310000895F6BFF1B98CE080B984EAEEDFF8F108
:1013200081B1887F8830D9F58CE683B984E8E5DF20
:10133000B0F181B1887F883191F58EE083B984E87E
:10134000DCDF68F181B1887F883249F584EAD5DF36
:1013500030F181B1887F803111F58DE683B984E861
:10136000CCDFE8F081B1887F8034C9F484ECC5DF3C
:10137000B0F081B1887F803591F483B18F70809314
:10138000880084E8BADF58F081B1887F883539F465
:1013900083B18093870084E986BF8894089584E9A7
:1013A00086BF0894089580919400882341F080912D
:1013B00095009091CE006091CF000FC0089580916C
:1013C000840085FF0895ECD9809184008F7D8093FF
:1013D00084008FEF809396000895863008F06CC0EB
:1013E000983370E0670708F467C0913870E06707CA
:1013F00008F062C0A82FC92FD62F8091840085FFE6
:101400000CC0809196008A1741F47FB7F8947F93BF
:101410003FD020687F917FBF08957FB7F8947F9376
:10142000BFD98BE18A95F1F7287F2068A23030F090
:10143000A43010F0246003C0216001C02260A130FC
:1014400051F0A23041F0A33021F0A43011F0959872
:1014500003C0C09801C093988BE18A95F1F7A093DF
:1014600096008091840080628093840011D025FDD5
:1014700002C0EAE203C0F0939800EAE38F2E8FEFF8
:1014800084BD80E488BF81E085BD7F917FBF0895E2
:1014900080E293E08C1B9D0B25FD04C07AE29F1334
:1014A00070E201C07AE3C09580951E012C01709313
:1014B00065001D7F1160089573D9809184008F7D30
:1014C000809384008FEF80939600089500240FBED0
:1014D000EFE5F4E0FEBFEDBF0292E036F00509F45F
:1014E000EEE1E015F005C1F781B780936000A4B686
:1014F000F4BF81E088BB81E087BBF5BB88E084BB9B
:101500008AE282BB8AEB81BB82E083BF81E08EBD31
:10151000F5BD88E181BD88E081BDF2D614D7FED645
:1015200066D97894A0FAAF1226F4AFD6B7D6BFD654
:101530001EC0A2FE04C0BBD6A8D6006818C0A1FE7B
:1015400002C0BCD614C0F894A3FE05C09ED69DD69A
:10155000AED6ADD6FBCFD1D64A2D58E040FF9ED6B1
:1015600040FDACD6CBD646955A95C1F7F4CF44D9B9
:10157000B998BA980D7FC7D784E588BF89BF37D996
:1015800083E085BF80E48BBFBB24137EF0936600AD
:10159000F0936700A89514FD0AC00DD980916700EB
:1015A0008837C1F78CE38093670081D6F3CF03D7E8
:1015B000C0917900D0917A00209631F78AE0B81670
:1015C00048F312FFF6BF812F8C7009F0FBBF76D66F
:1015D00075D674D60B7FE4D870D90D7FB99ABA98B6
:1015E000F0936600F0936700A89514FD0DC0C2D972
:1015F000BB20D1F7E0D8809167008E31A9F7D0D811
:101600007FD655D64BD6B3CF04FD97D605FD9BD6D6
:101610002DD7BB2049F3209611F45DD9E1CF40D9F5
:10162000BFD880B7886080BF3798BA98B998CEE89D
:10163000D0E06E010260FDD0F0937500F09376006B
:10164000F093770082E0B82E86E0809362008CE011
:101650008093610081E085BD17FD46C0EED087E034
:1016600087B9C09A10FD9598E6D080E087B9F894C4
:10167000287F226062B3939A72B385B3AB9895B317
:101680008913979A6713C0987894D7D086E087B962
:10169000959A10FD9398CFD087E087B9F894287F6A
:1016A000216068B3C09A78B382B3979892B38913D4
:1016B000949A671395987894C0D080E087B9939AEC
:1016C00010FDC098B8D086E087B9F894287F2460D0
:1016D00062B3959A72B382B3949892B38913AB9A1A
:1016E00067139398789445C0A6D080E087B9F894A2
:1016F000287F216062B3939A72B385B3AB9895B398
:101700008913949A67139598789497D087E087B94E
:10171000C09A10FD93988FD086E087B9F894287FFF
:10172000226062B3959A72B382B3949892B389138C
:10173000979A6713C098789480D080E087B9939A7D
:1017400010FD959878D087E087B9F894287F2460B9
:1017500068B3C09A78B382B3979892B38913AB9A5F
:1017600067139398789469D086E087B9959A10FDAD
:10177000C09880916100803010FF71F1E6012096E1
:1017800061F18C30C8F4839580936100629686ED98
:1017900090E060917700709176007C5F70937600A6
:1017A00021F4605FD9F060937700603170F070339E
:1017B00060F083E290E009C01F7BF0937700F09324
:1017C0007600BA986B9687E593E0C817D90710F0B2
:1017D0006C0142CF6E0140CFFECE21CFE1D70D7F0D
:1017E0008CD58BD56BD542D62096D1F7C0CEE6E608
:1017F00020FD959A21FDC09A22FD939A949897987E
:10180000AB98BA9A81E0809362005EC016FD09C071
:10181000BC3030F0BBE0AB1708F4AB2F7ED747C02D
:10182000BA9AF093610070917500715F16FD709324
:101830007500106449C01F7D01C010628091620074
:10184000815050F08093620016FF19C0C0E0DFEFB6
:10185000AF2E92D7A3E02AC0E63611F4E8E6BA9894
:1018600016FD3EC07BE168D796D779E565D700FFC6
:10187000BECF14FDFBD568B1612765FDF8CFA091FF
:101880007000B0917100B695A795B695A795A33055
:10189000BF0750F051F0AA31BF0708F0AAE1AC3001
:1018A00020F073E349D702C0A3E037D7BA2F00FF77
:1018B000ADCF14FDDBD568B1612765FD03C0AB1763
:1018C000AF1FF5CFAA9599F740D616FF64D7809140
:1018D00062008F131E7FBF1208958F918F917BCE70
:1018E000C0E0D0E070E0A72E80916100823030F43B
:1018F0007091750080E090E860E0D0D63DD74BD77E
:10190000C0E0D8EB7BE0A72E37D7AFEFCFCFDECD4F
:101C0000E4E0FFE5FEBFEDBF00E0ECEBFEE0C0E886
:101C1000D0E0A0E6B0E042E045BD5CEE539571F047
:101C200040EC04BD48BFA03619F0E8B6E6FC46C05B
:101C30008299F9CF04BD48BFE8B6E6FCE1C1829BBA
:101C4000FBCF04BD48BFE8B6E6FCE8CF8299FBCFE6
:101C500034B404BD48BFE8B6E6FCD2C1829BFBCFDA
:101C600024B4022C030C802C07940694402C069478
:101C70008008809420943094409460EE83E084BC8B
:101C800048BFE8B6E6FCBCC1829BFBCF84BC48BF22
:101C9000E8B6E6FCC3CF8299FBCF0894E8B6E6FC31
:101CA00023C0829BFBCFE8B6E6FCB8CF8299FBCF7E
:101CB0008894E8B6829BE6FC17C0FBCF43BC87E163
:101CC000929A8A9A34BC48BFE8B6E6FEFDCF929855
:101CD00024BC48BFE8B6E6FEFDCF8A9589F7C0E68A
:101CE000D0E060E081E00BC0679548F6815068F570
:101CF0005CEE0994CA17DB07D1F0699188E066951C
:101D0000929A34BC48BFE8B610F0E7FC02BBE6FE8E
:101D1000FACF929808F0929A24BC48BFE8B610F027
:101D2000E7FC02BBE6FEFACF8A9549F7E3CF929A29
:101D300034BC48BFC0E8D0E0A0E6B0E0E8B6E7FEBB
:101D4000FDCF8A9802BB6ACF80E060E898CFECEBC9
:101D5000FEE0C0E8D0E0F8CF009000000090000066
:101D60000090000000900000009000000090000033
:101D70000090000000900000000000006B3121F78F
:101D8000562E3796E1CF962E56263496DDCF762EF8
:101D900056263496D9CF662E56263496D5CF6E3039
:101DA000B1F656263596D0CF69935626CF3584E0C6
:101DB000D80768F681E0681A700A09F43C96C4CF27
:101DC0006511C5CFC0E8D0E0699199918991FD0175
:101DD0007BE170839182028372E073837EE074837F
:101DE0006583068317966130A1F48BE0838388E0D6
:101DF0008D93EF01ECEDFFE185918D93E43EE1F7EA
:101E0000FE01819161918627EA17FB07D9F78D932F
:101E10009ECF6D3151F5792F90E0039683839283A5
:101E200003970D938A95E9F789916991603380074B
:101E300094E0790779F460878991803059F4699149
:101E400060308EE131F0613083E919F0623087E073
:101E500009F482870D93D5CF8017900709F5D990A3
:101E6000C9905601AA0CBB1CCCCF6330E1F06230A4
:101E700041F2603131F2613121F2663069F3623151
:101E8000F1F1833F73E0970758F4643109F166314B
:101E900069F127966531C1F16331F9F10000000065
:101EA00080EC8683AECF90398FE071F0913982E07B
:101EB00059F092398AE041F0943982E329F0903860
:101EC00080E011F0913861F78D9383E0838399CF9F
:101ED00049D0EF01F5018FD076FDFDCF65916D936F
:101EE0000197E1F75F01FE010D938BCF3BD011E02D
:101EF0003ED06DB36D930197D9F70D9382CF47D044
:101F0000000080E092E0689416E06FEF0EF06991B7
:101F10002ED00197D1F7E89474CF8F7F61E07F01D5
:101F2000F5010990199068D032960297D1F70F0108
:101F3000F501500163E0E03C7FE1F70719F058D06C
:101F4000F7015FCF0BD065E009D061E107D0F8CF92
:101F500077B770FDFDCFE199FECF0895F9DF67BF38
:101F6000E8950895039692838383039708953AD062
:101F7000DFBACEBA0894C01ED01E762FE09A6DB399
:101F8000671312FF08957DBBE29A1CBB08957F0181
:101F9000E0E0FCE163E0E054F0402ED0E1F76F01B7
:101FA000F70108950000000000000000000000009C
:101FB0000000000000000000000000000000000021
:101FC000687474703A2F2F6769746875622E636F36
:101FD0006D2F73696D2D2F7467792F00415652490B
:101FE00053505F3277B770FDFDCFE199FECF089572
:101FF00003D065E001D061E1F5DF67BFE8950895A2
:00000001FF
