:020000020000FC
:10000000A7CDC5C0189518950994C1C088C018958A
:1000100090C018951895DBC01895189518951895E7
:100020001895D5C01895324B40744042405BFFFF95
:10003000FFFFFFFFFFFFFFFFFFFF9FB68A9409F45A
:10004000E7E29FBE18959FB68A949FBE189520FD43
:10005000959A21FDC09A22FD939A20FD949A21FD44
:10006000979A22FDAB9AE7E7832C24BC18958F1250
:10007000EACFA8959FB640919A0043954E3220F062
:10008000442751E050939B0040939A0040919E007A
:1000900050919D00450F28F04F3F39F040939E004E
:1000A00011C0439540939E0002C0F0939E009FBEF6
:1000B00020FD949A21FD979A22FDAB9AE9E6832CC4
:1000C00024BC18959FBEE7E343E0842E4FED44BD6A
:1000D00018958F12B8CFE7E3852C20FD949821FD69
:1000E000979822FDAB9844BC1895A89518958F1247
:1000F000AACFA89511FDABCFE0916500852C20FD1E
:10010000949821FD979822FDAB9844BC27FD189543
:1001100020FD959821FDC09822FD939818959FB6D3
:1001200040916300415008F40E7F409363009FBEEE
:1001300018959FB640916400439540936400509198
:10014000810051FF0BC05091830053955093830061
:1001500029F450918400539550938400509181006C
:1001600052FF03C05061509381004F7019F4BB20BF
:1001700019F0BA949FBE189540916600439540933C
:10018000660040916700439540936700F3CF4CB5FC
:100190005DB5829B0DC09FB65A5659BD48BD42E021
:1001A00045BF48E048BF9FBE18959FB604600BC08E
:1001B00098B693FCFACF9FB63A0148B559B556594F
:1001C000641A750A106143E045BF9FBE189590E51B
:1001D00078ECBA9AC098949A1ED0E1F7BA9808952C
:1001E00094E674EBB99A9398979A15D0E1F7B99879
:1001F000089598E770EA9598AB9A0DD0E1F70895C5
:100200009CE87CE8BA9AB99A9398949A04D0E1F75A
:10021000B998BA980895F2BF82B78032E8F3959AF8
:10022000C09A939A94989798AB9860E1F2BFA8957A
:1002300082B78717E8F36A95C9F79A95089500D0B1
:1002400000D000D09FE060E1F2BF81E088BFA895B8
:1002500088B780FFFDCF6A95B9F79A95A1F7089501
:100260008091BB009091BC0082539B4439F0CBEB52
:10027000D0E0E6E285918993CF3CE1F70895809143
:10028000600081BF0F7DCBEBD0E080E890E0A895C7
:10029000E199FDCF67B760FDFACFCF3C81F09FBBFE
:1002A0008EBB0196E09A6DB317F06993F0CF799108
:1002B0007DBBF894E29A6713E19A7894E8CFC2DFA5
:1002C0008FEF81BF0895000C111CAA1C8A95D9F7E5
:1002D0000895869FA12C969FA00CC11DDF1F879FAC
:1002E000A00CC11DDF1F979FC00DD11D08951F7E5B
:1002F000C3019053660B602763FD8DC007FD50C09E
:10030000CDEBD0E001C09BDF42D0BC01A895FF9FA0
:10031000AA24CD3B31F49FE160348BE5780798F453
:100320003FC08091BD0068178091BE00780760F7DC
:1003300092E2CF3B41F08091BF0068178091C000EE
:10034000780710F390E2892EA89514FFFDCF1F7E49
:100350001ED0080E191EAF1E861B970B80569F4F8E
:100360008154914080F68A9479F783E0ACDF19924A
:10037000A992C13C09F41ED23CDFCF3BC1F262DF3F
:1003800038DFC13C11F05EDF34DF79DF46C0C301E6
:1003900003FF0895A3E0880F991FAA95E1F7089538
:1003A0001F76C301903360F003FD11C0C0917F0040
:1003B000D09180008C1B9D0B60F4CC27DD2716C0EC
:1003C000963028F0803C62E1960703FD78F30460E4
:1003D000089560917B0070917C00C8E3D0E079DFE4
:1003E000C73583E0D80710F0C7E5D3E0C0937900A4
:1003F000D0937A0001FF03C082E0B82EA6C08CE043
:10040000B816BF1E0895C3E07695679596958795B3
:10041000CA95D1F7089588E008278091BF00909190
:10042000C0006091BD007091BE0003FDECDF8093C1
:100430007F0090938000681B790B05D080937B0030
:1004400090937C00089585E595E00196A8959F3FDF
:10045000890721F0C0EEDCEF3CDFB9F70895F8948E
:100460008CB59DB56091640078B77894903872FD32
:100470006F1FC0916900D0916A00A0906B008093BB
:10048000690090936A0060936B0000906C0010907C
:100490006D0070916E00C0936C00D0936D00A092BF
:1004A0006E0080199109670B94306F0728F480E083
:1004B00094E060E0D694C79490386F07A7E5B3E066
:1004C000F0F0A1E0B1E27D01A0E8BBEAFF9F771B5D
:1004D0000AC0771F001C111C78170906160618F0B1
:1004E000781B090A160AAA1FBB1FEE1CFA9489F78B
:1004F000A095B095A63DBF0710F4A6EDB0E07D0134
:1005000080936F009093700060937100669597954B
:100510008795C0916900D0916A00A0906B0073E349
:1005200047D0C0937200D0937300A09274009031B2
:100530006F0718F02F7B5FD002C0206497D014FDA6
:100540002FCFC0917900D0917A00CE15DF0508F049
:10055000E701CC15DD0508F0E60187E593E08C1B8B
:100560009D0B01F1209601F11D7F116016FF04C063
:10057000880F991FCC0FDD1F68947DE29F137DE1EA
:1005800080319F0728F0E894079777E29F137DE179
:10059000C09580951E01F8942C017093650027F991
:1005A000789408951360E8CF1C7F77E76894F0CFC4
:1005B000879FC10DDF1FAF1E979FC00DD11DAF1EBE
:1005C000679FD00DA11C089580916F0090917000DD
:1005D00060917100C0917200D0917300A09074007E
:1005E0000895F2DFC80FD91FA61EC80FD91FA61E77
:1005F00002C0EADFDDDF79B7072E7B7E79BF70E1CD
:10060000F894DBBDCABD78BF8CB59DB57894016008
:100610006091640078B7903872FD6F1FC81BD90BCA
:10062000A60AA09263000AF40E7F09BE089526FF71
:10063000D8CF80916F0090917000C0917200D091DE
:100640007300C80FD91FC80FD91F10C026FFD1CF04
:1006500080916F0090917000C0917200D0917300F2
:10066000879FC10DDF1F979FC00DD11D70E1F894CA
:10067000DBBDCABD78BF8CB59DB50160F09363004A
:100680007894C81BD90B0AF40E7F0895279670E161
:10069000F8948CB59DB5C80FD91FDBBDCABD78BF16
:1006A000A092630001607894089514FD79DE00FD46
:1006B000FCCF0895F5BD80E488BFE5E7959AC09A20
:1006C000939A94989798AB980895829BF0936600BC
:1006D0008091660085FF0895E0E0F894FCE1859143
:1006E0009491F0E0789401960297A8F3F894F7BB00
:1006F000F4BBF1BB88E181BDF1BD8091600081BF99
:100700007FCAF0938100F0938200F0938300F0930E
:1007100084001DD42F7D8FEF80939C00F6BF089539
:100720008091C500853A31F48091C400803110F485
:100730008894089508940895C6ECD0E08FEF9FEF59
:100740006991962778E0880F991F20F4A1E28A2703
:10075000A0E19A277A95B9F7CC3C60E0D60781F7FB
:1007600008958091CE00813619F58091C7008031BF
:10077000F8F48091C8008730D9F48091C9008230A4
:10078000B8F48091CA009091CB00883360E096075E
:1007900078F0813460E0960758F4CEDF6091CC00A9
:1007A000861731F46091CD00961711F4889408955E
:1007B000089408958FEF8093CE00FBD598F078D6FB
:1007C00088F0CDD678F08091870090918800809352
:1007D000C3009093C40085EA8093C50082E08093B3
:1007E000820009C0F09382008FEF8093C300809352
:1007F000C4008093C500089581E080938100F09348
:100800008200F0938300F0938400A1D32F7D8FEFBB
:1008100080939C00F6BF0895609182006270F0930F
:10082000820082E080938100F0938300F093840043
:10083000F6BF662341F495DF18F08DED92E005C018
:100840008DED92E002C088279927809385009093D0
:10085000860008958091810080FF0895F0938200C2
:100860008170826080938100F0938300F093840014
:10087000F6BF77DF18F08DED92E002C08DED92E0CB
:10088000809385009093860008958091810081FF78
:10089000089582FD08958091830090918400609175
:1008A00085007091860086179707D8F182D5D0F120
:1008B000FFD5C0F154D6B0F133DFC8F152DF08F4F0
:1008C00060C355D6F5D570F14AD660F140D3F093A8
:1008D0008200809181008F718C6180938100809172
:1008E00087009091880080939F009093A000809350
:1008F0008A0090938B00F0938C00F0938D00F0931E
:100900008E00F093A100F093A200F0939D00F0936D
:100910009E00F0939300F093A300F093A400206254
:100920003DD608950BD053DC8DDC51DC1AC006D0C7
:100930004EDC88DC4CDC86DC4ADC13C02F7DF09377
:10094000820080918100817080938100F0939D00EE
:10095000F0939300AFDEFBD28FEF80939C00F6BF45
:10096000089580918100826080938100F0938300DC
:10097000F09384008FE49EE080938500909386003E
:1009800008958091810082FF089586FD08C09091AE
:100990009B00992321F0F0939B003DD2FFD58091DD
:1009A000810084FF08958F7E8093810081D508F4B3
:1009B000B9CFD5D508F4B6CF8091810088608093F7
:1009C000810086FDABC39091820090FD03C019D0D9
:1009D00010D208956091C3007091C4008091870087
:1009E00090918800681B790B7F7073FF04C0706F53
:1009F000709561957F4F6C3A80E0780708F061CF81
:100A0000089580918D0090918E008F5F9F4F80930D
:100A10008D0090938E00823A67E0960708F0A6C298
:100A200040D060918A0070918B00809187009091F6
:100A30008800681B790B7F7073FD706FDB0160911C
:100A400087007091880080919F009091A000609332
:100A50009F007093A000681B790B7F7073FD706F0F
:100A60008091810087FF89C0CD0197FF03C09095D9
:100A700081959F4F8332C0E09C0708F07EC0CB0178
:100A800097FF03C0909581959F4F992309F075C0FA
:100A9000833008F072C0F0939D00F09393003AD237
:100AA0000895A0918A00B0918B006091C30070916D
:100AB000C4006A1B7B0B7F7073FD706F862F872BC2
:100AC00031F4809181008068809381000895DD2752
:100AD00077FF04C0D395709561957F4FC0918C00CE
:100AE00087ECC80FC0938C0080E18F1F882301F131
:100AF000E894772341F4861730F0A091C300B091B9
:100B0000C400689408C0DD2319F4A80FBF1F02C0F9
:100B1000A81BBF0BBF7012D058F0A0938A00B093EF
:100B20008B0036F480918100806880938100089565
:100B3000809181008F77809381000895BD0180911D
:100B4000870090918800681B790B7F7073FF04C049
:100B5000706F709561957F4FCC27DD2787E08823E4
:100B600051F0C60FD71F8A95E1F7C13080E1D80751
:100B700010F48894089508940895CB0160E2A5D0FC
:100B80008F939F938091A1009091A2006A2F6B2B6D
:100B900039F0682F692B41F0692F6B2767FF04C07C
:100BA000F093A300F093A400A093A100B093A2003F
:100BB0008091A3009091A4008A0F9B1F97FD07C00E
:100BC000833D6FE4960748F083ED9FE406C08D32C5
:100BD00060EB960710F48DE290EB8093A300909366
:100BE000A400CD016CE071D0DC018091A300909154
:100BF000A400C5E095958795CA95E1F763E065D0B7
:100C0000CB2FA80FB91F6C2F692767FF01C00BC03E
:100C10006C2F6B2767FF07C0C7FF03C0AA27B0E888
:100C200002C0AFEFBFE79F918F91CB2FA81BB90BED
:100C30006C2F692767FF0BC06C2F6B2767FF07C0FE
:100C4000C7FF03C0AA27B0E802C0AFEFBFE7BD01EE
:100C5000CC2777FF04C0C395709561957F4F862F91
:100C6000872B61F1772321F4862F843CC8F001F0B3
:100C70009091A200CC2319F497FD11C002C097FFF8
:100C80000EC08091A3009091A4006091A10070918A
:100C9000A200861B970B8093A3009093A40084EC82
:100CA0008093990061E0CC2309F061958091C9009F
:100CB000882309F06195609393003BC0F0939900FD
:100CC000F0939D00F093930034C0762F7F7062956F
:100CD0006F7097FF04C0909581959F4F7068EC01ED
:100CE0008827992777FF06C0703851F08C0F9D1F19
:100CF0007A95FACF772321F08C0F9D1F7A95FACF42
:100D000096958795969587959695879596958795C7
:100D1000662349F08C0F9D1F97FF03C08FEF9FE75D
:100D200002C06A95F5CF77FF03C0909581959F4FDC
:100D30000895609187007091880088279927C7E0FF
:100D4000CC23B9F0860F971FCA95E1F79F70C09129
:100D5000C900CC2331F066277727681B790BCB01BC
:100D60009F706091C6007091C700860F971F9F709B
:100D700004C088279927F093930080938F00909365
:100D8000900060919300662339F01AF080509C4FD8
:100D900002C0805094409F70809391009093920085
:100DA00001D008956627923040F011F48B3A28F074
:100DB0008B5A924063956530B0F360939500DC01E7
:100DC000B695A795B695A795B695A795AA0FBB1FFB
:100DD0007FB7F894EF93E8E6FEE0EA0FFB1F8591FA
:100DE0009491EF91FF277FBF809396009093970097
:100DF000089580919300882329F08091810085FFD8
:100E000003C00895CBD3089506D0C8D3F0939A00B9
:100E1000F0939B00089560919500A09198008091B7
:100E2000960090919700A91708F0A91BA80F20F031
:100E3000A91738F0A91B01C0A91B6395663008F0FB
:100E40006627A09398006093940080919900899FF1
:100E5000802D912D81589F4F890F10F08F3F09F4FD
:100E6000939590939D00089500DD03DE06E009E16F
:100E70000DE310E413E616E719E81CEA1FEB22EC79
:100E800025ED28EE2CEF2FF032F135F238F33BF45C
:100E90003EF541F644F747F84AF84DF950FA53FA4F
:100EA00056FB59FB5CFC5EFC62FD64FD67FE6AFE5E
:100EB0006DFE70FE73FF76FF78FF7BFF7EFF80FF85
:100EC00083FF86FF88FF8BFF8DFE90FE93FE96FECC
:100ED00098FD9AFD9DFD9FFCA2FCA4FBA7FBA9FA2F
:100EE000ABF9AEF9B0F8B2F7B4F6B7F6B9F5BBF4B2
:100EF000BDF3BFF2C1F1C3F0C5EFC7EEC9ECCBEB58
:100F0000CDEACFE9D0E7D2E6D4E5D5E3D7E2D9E020
:100F1000DBDFDCDDF0939D00F0939300CBDB17D09B
:100F20002F7DF093A100F093A200F093A300F09323
:100F3000A4008091810081708C6091E09093820088
:100F4000809381008FEF80939C00F6BF0895F0930B
:100F50009500F0939600F0939700F0939800F0932B
:100F60009900F0939A00F0939B000895E7DC2FD945
:100F700069D92DD967D92BD965D929D963D927D969
:100F8000F0CC20628DE480939D00F0939E0088E376
:100F900090E08093CA009093CB00809181008F7D78
:100FA0008C658093810081E08093A500F093AB0075
:100FB000F093AC00F093B300F093B40008D001D0EC
:100FC00008958091AB0090E860E002D30895F0931B
:100FD000A600F093A700F093A8008091870090915D
:100FE00088008093AD009093AE008093A900909309
:100FF000AA00089560918700709188008091AD00EB
:101000009091AE006093AD007093AE00681B790BB9
:101010007F7073FD706F08956091870070918800F4
:101020008091AF009091B0006093AF007093B000DA
:10103000681B790B7F7073FD706F0895EDDF8091F1
:10104000B3009091B400860F971F8093B3009093E4
:10105000B4000895E894CB0197FF03C09095819563
:101060009F4F9923F9F48430E8F4609187007091E0
:1010700088008091A9009091AA00681B790B7F706D
:1010800073FF04C0706F709561957F4F772351F4A3
:10109000673040F48091A80083958093A800803445
:1010A000E0F40AC0F093A800809187009091880036
:1010B0008093A9009093AA008091A6009091A70028
:1010C0008F5F9F4F8093A6009093A7008D3D62E0B5
:1010D000960708F06894889408950894089580917C
:1010E000AB008395863008F088278093AB00089585
:1010F0008091AB00882309F486E08A958093AB0049
:10110000089577FF03C0709561957F4F613084E04B
:10111000780710F488940895089408958091A500A4
:10112000813009F40AC0823009F415C0833009F413
:101130003AC0843009F45FC026C15CDF8BDF0EF457
:101140001CC108F00895F093AC00C9DF82E08093E1
:10115000A5003DDF36CF4EDF7DDF0EF40EC108F077
:1011600008958091AC0083958093AC00863018F48C
:10117000B6DF2DDF26CFF093B300F093B40080915B
:101180008700909188008093B1009093B200809383
:10119000AF009093B000F093AC00A1DF83E08093A8
:1011A000A50015DF0ECF26DF55DF0EF4E6C008F0F0
:1011B000089544DFA6DF08F4E2C08091AC00839577
:1011C0008093AC008C3018F48ADF01DFFACE809176
:1011D000B3009091B4008093B5009093B600F09363
:1011E000B300F093B400F093AC0082DF84E080930E
:1011F000A500EDDEE6CEFEDE2DDF0EF4BEC008F06B
:1012000008951CDF7EDF08F4BAC08091AC0083959E
:101210008093AC008C3018F46BDFD9DED2CE6091B5
:101220008700709188008091B1009091B200681B96
:10123000790B7F7073FF04C0706F709561957F4F5D
:10124000772309F09EC0613208F09BC06091B30023
:101250007091B40075956795809187009091880092
:10126000861B970B9F708093AF009093B0006091A6
:10127000B5007091B600CC2777FF04C0C395709578
:1012800061957F4FC093C9006093B5007093B6001D
:101290008091B3009091B400CC2331F497FF71C0DA
:1012A000909581959F4F02C097FD6BC08093B300CE
:1012B0009093B4006817790718F4861B970B04C045
:1012C000DB01A81BB90BCD01992309F05AC081326B
:1012D00008F057C06091B5007091B6008091B300DE
:1012E0009091B400860F971F969587958093B500CF
:1012F0009093B6006091B5007091B600683681E0B9
:10130000780708F43EC0C7E0C093C8006091AF0002
:101310007091B000AA27BB27C7E0A60FB71FCA95D8
:10132000E1F7BF708091C900882331F4882799279D
:101330008A1B9B0BDC01BF70A093C600B093C70053
:10134000B9D9809181008F7980938100F5D98093FC
:10135000CC009093CD0081E68093CE0090D7A8D0AA
:1013600008F4E0CAFCD008F4DDCA01D1A1D008F429
:10137000D9CAF5D008F4D6CAA9CAA4E005C0A6E027
:1013800003C0A7E001C0A9E0AF93D8DACF911FD77F
:10139000CA9511F057D7FBCFE4CA86BF9FEFA89537
:1013A00086B787FD04C09A95D1F70894089588946C
:1013B0000895F6BFF1B98CE080B984EAEEDF88F1D8
:1013C00081B1887F883069F58CE683B984E8E5DFF0
:1013D00040F181B1887F883121F587E083B984E8C5
:1013E000DCDFF8F081B1887F8832D9F481E083B9FD
:1013F00084E8D3DFB0F081B1887F883291F4F3B90B
:1014000084E8CBDF70F081B1887F883251F484E9C1
:1014100086BF9FEF86B784FF03C09A95D9F79BC01C
:1014200001C099C0F6BFF1B98CE080B984EAB5DF9C
:10143000C0F381B1887F8830A1F78CE683B984E856
:10144000ACDF78F381B1887F883159F787E083B9C1
:1014500084E8A3DF30F381B1887F883211F784EA12
:101460009CDFF8F281B1887F8031D9F68DE683B9AF
:1014700084E893DFB0F281B1887F803491F684EC08
:101480008CDF78F281B1887F803559F683B1813065
:1014900041F684E882DF28F281B1887F883509F639
:1014A00083B1803009F0BDCF84E986BF8894089568
:1014B000F6BFF1B98CE080B984EA6FDF08F44BC065
:1014C00081B1887F883009F046C08CE683B984E812
:1014D00064DF08F440C081B1887F8831E1F58BE09A
:1014E00083B984E85ADFB8F181B1887F883299F5F1
:1014F00084EA53DF80F181B1887F803161F58DE628
:1015000083B984E84ADF38F181B1887F803419F5E6
:1015100084EC43DF00F181B1887F8035E1F483B151
:101520008093890084EC39DFB0F081B1887F803509
:1015300091F483B18F708093880084E82EDF58F097
:1015400081B1887F883539F483B18093870084E93D
:1015500086BF8894089584E986BF08940895809191
:10156000890085FF02C088940895089408958091A9
:10157000890084FF07C0C8E00AD08091890083FFFA
:1015800008955DD68091890083FF0895CAE01FD633
:10159000CA9511F057D6FBCF8DD80895809193004E
:1015A000882341F0809194009091CA006091CB0013
:1015B0000FC008958091810085FF08957BD88091A8
:1015C00081008F7D809381008FEF80939C00089530
:1015D000863008F099C07091810076FF0AC090377C
:1015E00070E0670708F490C0913870E0670758F022
:1015F0008BC0983370E0670708F486C0913470E0C0
:10160000670708F081C0A82FC92FD62F80918100CD
:1016100085FF0CC080919C008A1741F47FB7F89435
:101620007F935ED020687F917FBF08957FB7F89445
:101630007F93E8948091810085FF1BC080919C007E
:101640008630B8F4982F93959695933009F499279E
:101650006A2F63956695633009F46627961749F4F7
:10166000F5BD80E488BFE5E794989798AB986894B7
:1016700001C020D88BE18A95F1F7287F2068A2303D
:1016800030F0A43010F0246003C0216001C022605B
:1016900086F0A13051F0A23041F0A33021F0A43007
:1016A00011F0959803C0C09801C093988BE18A957A
:1016B000F1F7A0939C00809181008062809381006B
:1016C0000FD025FD02C0E7E201C0E7E38F2E8FEFC8
:1016D00084BD80E488BF81E085BD7F917FBF089590
:1016E00080E293E08C1B9D0B25FD04C077E29F13E5
:1016F0007DE101C077E3C09580951E012C017093B8
:1017000065001D7F11600895D5D7809181008F7D80
:10171000809381008FEF80939C00089500240FBE7A
:10172000EFE5F4E0FEBFEDBF0292E036F00509F40C
:10173000EEE1E015F005C1F781B780936000A4B633
:10174000F4BF81E088BB81E087BBF5BB88E084BB48
:101750008AE282BB8AEB81BB82E083BF81E08EBDDF
:10176000F5BD88E181BD88E081BD6CD588D578D58F
:101770007894A0FAAF1226F42AD532D53AD51EC0F5
:10178000A2FE04C036D523D5006818C0A1FE02C051
:1017900037D514C0F894A3FE05C019D518D529D59E
:1017A00028D5FBCF4CD54A2D58E040FF19D540FD38
:1017B00027D546D546955A95C1F7F4CFA2D7B99803
:1017C000BA980D7F2AD684E588BF89BF83E085BF9C
:1017D00080E48BBFBB24137EF0936600F093670018
:1017E000A89514FD0AC071D7809167008837C1F7AA
:1017F0008CE380936700FDD4F3CF79D5C091790055
:10180000D0917A00209631F78AE0B81648F3812FFC
:101810008C7009F0FBBFF4D4F3D4F2D4FDD70B7F66
:1018200049D718D80D7FB99ABA98F0936600F0930B
:101830006700A89514FD0DC0A4D8BB20D1F745D7EB
:10184000809167008E31A9F735D7FCD4D2D4C8D4A3
:10185000B5CFA6D5BB2069F3209611F416D8E5CFF5
:10186000CBD728D780B7886080BF3798BA98B99807
:10187000CEE8D0E06E010260FDD0F0937500F093E9
:101880007600F093770082E0B82E86E080936200C5
:101890008CE08093610081E085BD17FD46C0EED0ED
:1018A00087E087B9C09A10FD9598E6D080E087B9A7
:1018B000F894287F226062B3939A72B385B3AB9891
:1018C00095B38913979A6713C0987894D7D086E018
:1018D00087B9959A10FD9398CFD087E087B9F8948F
:1018E000287F216068B3C09A78B382B3979892B387
:1018F0008913949A671395987894C0D080E087B93B
:10190000939A10FDC098B8D086E087B9F894287FE4
:10191000246062B3959A72B382B3949892B3891398
:10192000AB9A67139398789445C0A6D080E087B9A6
:10193000F894287F216062B3939A72B385B3AB9811
:1019400095B38913949A67139598789497D087E004
:1019500087B9C09A10FD93988FD086E087B9F89424
:10196000287F226062B3959A72B382B3949892B33F
:101970008913979A6713C098789480D080E087B9CC
:10198000939A10FD959878D087E087B9F894287FCE
:10199000246068B3C09A78B382B3979892B38913DE
:1019A000AB9A67139398789469D086E087B9959A33
:1019B00010FDC09880916100803010FF71F1E60148
:1019C000209661F18C30C8F4839580936100629613
:1019D00086ED90E060917700709176007C5F709367
:1019E000760021F4605FD9F060937700603170F089
:1019F000703360F083E290E009C01F7BF0937700C2
:101A0000F0937600BA986B9687E593E0C817D907EC
:101A100010F06C0142CF6E0140CF02CF21CF4AD6E9
:101A20000D7F0DD40CD4ECD3BBD42096D1F7C6CE09
:101A3000E5E720FD959A21FDC09A22FD939A94989E
:101A40009798AB98BA9A81E0809362005EC016FDC9
:101A500009C0BC3030F0BBE0AB1708F4AB2FE7D5C2
:101A600047C0BA9AF093610070917500715F16FDDE
:101A700070937500106449C01F7D01C01062809191
:101A80006200815050F08093620016FF19C0C0E0E0
:101A9000DFEFAF2EFBD5A3E02AC0E53711F4E7E76F
:101AA000BA9816FD3EC07BE1D1D5FFD579E5CED5FC
:101AB00000FFBECF14FD74D468B1612765FDF8CF77
:101AC000A0917000B0917100B695A795B695A795B5
:101AD000A330BF0750F051F0AA31BF0708F0AAE1C8
:101AE000AC3020F073E3B2D502C0A3E0A0D5BA2F8A
:101AF00000FFADCF14FD54D468B1612765FD03C06C
:101B0000AB17AF1FF5CFAA9599F7A9D416FFCDD57E
:101B1000809162008F131E7FBF1208958F918F9165
:101B20007FCEC0E0D0E070E0A72E809161008230CF
:101B300030F47091750080E090E860E039D5A6D56A
:101B4000B4D5C0E0D8EB7BE0A72EA0D5AFEFCFCFC8
:021B5000E5CDE1
:101C0000E4E0FFE5FEBFEDBF00E0ECEBFEE0C0E886
:101C1000D0E0A0E6B0E042E045BD5CEE539571F047
:101C200040EC04BD48BFA03619F0E8B6E6FC46C05B
:101C30008299F9CF04BD48BFE8B6E6FCE1C1829BBA
:101C4000FBCF04BD48BFE8B6E6FCE8CF8299FBCFE6
:101C500034B404BD48BFE8B6E6FCD2C1829BFBCFDA
:101C600024B4022C030C802C07940694402C069478
:101C70008008809420943094409460EE83E084BC8B
:101C800048BFE8B6E6FCBCC1829BFBCF84BC48BF22
:101C9000E8B6E6FCC3CF8299FBCF0894E8B6E6FC31
:101CA00023C0829BFBCFE8B6E6FCB8CF8299FBCF7E
:101CB0008894E8B6829BE6FC17C0FBCF43BC87E163
:101CC000929A8A9A34BC48BFE8B6E6FEFDCF929855
:101CD00024BC48BFE8B6E6FEFDCF8A9589F7C0E68A
:101CE000D0E060E081E00BC0679548F6815068F570
:101CF0005CEE0994CA17DB07D1F0699188E066951C
:101D0000929A34BC48BFE8B610F0E7FC02BBE6FE8E
:101D1000FACF929808F0929A24BC48BFE8B610F027
:101D2000E7FC02BBE6FEFACF8A9549F7E3CF929A29
:101D300034BC48BFC0E8D0E0A0E6B0E0E8B6E7FEBB
:101D4000FDCF8A9802BB6ACF80E060E898CFECEBC9
:101D5000FEE0C0E8D0E0F8CF009000000090000066
:101D60000090000000900000009000000090000033
:101D70000090000000900000000000006B3121F78F
:101D8000562E3796E1CF962E56263496DDCF762EF8
:101D900056263496D9CF662E56263496D5CF6E3039
:101DA000B1F656263596D0CF69935626CF3584E0C6
:101DB000D80768F681E0681A700A09F43C96C4CF27
:101DC0006511C5CFC0E8D0E0699199918991FD0175
:101DD0007BE170839182028372E073837EE074837F
:101DE0006583068317966130A1F48BE0838388E0D6
:101DF0008D93EF01ECEDFFE185918D93E43EE1F7EA
:101E0000FE01819161918627EA17FB07D9F78D932F
:101E10009ECF6D3151F5792F90E0039683839283A5
:101E200003970D938A95E9F789916991603380074B
:101E300094E0790779F460878991803059F4699149
:101E400060308EE131F0613083E919F0623087E073
:101E500009F482870D93D5CF8017900709F5D990A3
:101E6000C9905601AA0CBB1CCCCF6330E1F06230A4
:101E700041F2603131F2613121F2663069F3623151
:101E8000F1F1833F73E0970758F4643109F166314B
:101E900069F127966531C1F16331F9F10000000065
:101EA00080EC8683AECF90398FE071F0913982E07B
:101EB00059F092398AE041F0943982E329F0903860
:101EC00080E011F0913861F78D9383E0838399CF9F
:101ED00049D0EF01F5018FD076FDFDCF65916D936F
:101EE0000197E1F75F01FE010D938BCF3BD011E02D
:101EF0003ED06DB36D930197D9F70D9382CF47D044
:101F0000000080E092E0689416E06FEF0EF06991B7
:101F10002ED00197D1F7E89474CF8F7F61E07F01D5
:101F2000F5010990199068D032960297D1F70F0108
:101F3000F501500163E0E03C7FE1F70719F058D06C
:101F4000F7015FCF0BD065E009D061E107D0F8CF92
:101F500077B770FDFDCFE199FECF0895F9DF67BF38
:101F6000E8950895039692838383039708953AD062
:101F7000DFBACEBA0894C01ED01E762FE09A6DB399
:101F8000671312FF08957DBBE29A1CBB08957F0181
:101F9000E0E0FCE163E0E054F0402ED0E1F76F01B7
:101FA000F70108950000000000000000000000009C
:101FB0000000000000000000000000000000000021
:101FC000687474703A2F2F6769746875622E636F36
:101FD0006D2F73696D2D2F7467792F00415652490B
:101FE00053505F3277B770FDFDCFE199FECF089572
:101FF00003D065E001D061E1F5DF67BFE8950895A2
:00000001FF
