:020000020000FC
:10000000AFCCC8C0189518950994C4C08BC018957A
:1000100093C018951895DEC01895189518951895E1
:100020001895D8C01895697A40744042405BFFFF2C
:10003000FFFFFFFFFFFFFFFFFFFFFFFFFFFFFFFFD0
:100040009FB68A9409F4EAE29FBE18959FB68A94F7
:100050009FBE189520FD959A21FDC09A22FD939A86
:1000600020FD949A21FD979A22FDAB9AEAE7832C12
:1000700024BC18958F12EACFA8959FB6409199009D
:100080004395443120F0442751E050939A00409327
:10009000990040919D0050919C00450F28F04F3FE2
:1000A00039F040939D0011C0439540939D0002C0DC
:1000B000F0939D009FBE20FD949A21FD979A22FD0A
:1000C000AB9AECE6832C24BC18959FBEEAE343E090
:1000D000842E4FED44BD18958F12B8CFEAE3852CDE
:1000E00020FD949821FD979822FDAB9844BC18956B
:1000F000A89518958F12AACFA89511FDABCFE091C6
:100100006500852C20FD949821FD979822FDAB98E1
:1001100044BC27FD189520FD959821FDC09822FD2F
:10012000939818959FB640916300415008F40E7F54
:10013000409363009FBE18959FB64091640043951D
:10014000409364005091810051FF0BC05091820098
:1001500053955093820029F4509183005395509306
:1001600083005091810052FF03C050615093810081
:100170004F7019F4BB2019F0BA949FBE18954091A6
:100180006600439540936600409167004395409315
:100190006700F3CF4CB55DB5829B0DC09FB65A5634
:1001A00059BD48BD42E045BF48E048BF9FBE1895D5
:1001B0009FB604600BC098B693FCFACF9FB63A0185
:1001C00048B559B55659641A750A106143E045BFE0
:1001D0009FBE189590E578ECBA9AC098949A1ED074
:1001E000E1F7BA98089594E674EBB99A9398979AC0
:1001F00015D0E1F7B998089598E770EA9598AB9A09
:100200000DD0E1F708959CE87CE8BA9AB99A9398E2
:10021000949A04D0E1F7B998BA980895F2BF82B7DA
:100220008032E8F3959AC09A939A94989798AB98ED
:1002300060E1F2BFA89582B78717E8F36A95C9F71E
:100240009A95089500D000D000D09FE060E1F2BF01
:1002500081E088BFA89588B780FFFDCF6A95B9F780
:100260009A95A1F708958091BA009091BB008956A4
:100270009A4739F0CAEBD0E0E6E285918993C53D13
:10028000E1F708958091600081BF0F7DCAEBD0E057
:1002900080E890E0A895E199FDCF67B760FDFACFBF
:1002A000C53D81F09FBB8EBB0196E09A6DB317F000
:1002B0006993F0CF79917DBBF894E29A6713E19A44
:1002C0007894E8CFC2DF8FEF81BF0895000C111C36
:1002D000AA1C8A95D9F70895869FA12C969FA00CF9
:1002E000C11DDF1F879FA00CC11DDF1F979FC00D81
:1002F000D11D08951F7EC3019053660B602763FDD7
:100300008DC007FD50C0CCEBD0E001C09BDF42D0D8
:10031000BC01A895FF9FAA24CC3B31F49FE1603437
:100320008BE5780798F43FC08091BC0068178091F6
:10033000BD00780760F792E2CE3B41F08091BE00AD
:1003400068178091BF00780710F390E2892EA89576
:1003500014FFFDCF1F7E1ED0080E191EAF1E861B78
:10036000970B80569F4F8154914080F68A9479F77D
:1003700083E0ACDF1992A992C03C09F402D23CDFC1
:10038000CE3BC1F262DF38DFC03C11F05EDF34DF0C
:1003900079DF46C0C30103FF0895A3E0880F991FCA
:1003A000AA95E1F708951F76C301903360F003FD2D
:1003B00011C0C0917F00D09180008C1B9D0B60F418
:1003C000CC27DD2716C0963028F0803C62E19607E6
:1003D00003FD78F30460089560917B0070917C00C8
:1003E000C8E3D0E079DFC73583E0D80710F0C7E570
:1003F000D3E0C0937900D0937A0001FF03C082E07C
:10040000B82EA6C08CE0B816BF1E0895C3E076953E
:10041000679596958795CA95D1F7089588E008273E
:100420008091BE009091BF006091BC007091BD00B2
:1004300003FDECDF80937F0090938000681B790BB5
:1004400005D080937B0090937C00089585E595E02E
:100450000196A8959F3F890721F0C0EEDCEF3CDFB5
:10046000B9F70895F8948CB59DB56091640078B79C
:100470007894903872FD6F1FC0916900D0916A0026
:10048000A0906B008093690090936A0060936B006A
:1004900000906C0010906D0070916E00C0936C0025
:1004A000D0936D00A0926E0080199109670B943073
:1004B0006F0728F480E094E060E0D694C794903809
:1004C0006F07A7E5B3E0F0F0A1E0B1E27D01A0E89D
:1004D000BBEAFF9F771B0AC0771F001C111C78170F
:1004E0000906160618F0781B090A160AAA1FBB1F70
:1004F000EE1CFA9489F7A095B095A63DBF0710F4BD
:10050000A6EDB0E07D0180936F0090937000609342
:100510007100669597958795C0916900D0916A00A2
:10052000A0906B0073E347D0C0937200D093730028
:10053000A092740090316F0718F02F7B5FD002C03B
:10054000206497D014FD2FCFC0917900D0917A000C
:10055000CE15DF0508F0E701CC15DD0508F0E60152
:1005600087E593E08C1B9D0B01F1209601F11D7F27
:10057000116016FF04C0880F991FCC0FDD1F68940F
:1005800070E39F1370E280319F0728F0E89407978B
:100590007AE29F1370E2C09580951E01F8942C01B9
:1005A0007093650027F9789408951360E8CF1C7F55
:1005B0007AE76894F0CF879FC10DDF1FAF1E979F2A
:1005C000C00DD11DAF1E679FD00DA11C0895809155
:1005D0006F009091700060917100C0917200D09195
:1005E0007300A09074000895F2DFC80FD91FA61EF3
:1005F000C80FD91FA61E02C0EADFDDDF79B7072EBC
:100600007B7E79BF70E1F894DBBDCABD78BF8CB545
:100610009DB5789401606091640078B7903872FD60
:100620006F1FC81BD90BA60AA09263000AF40E7FA5
:1006300009BE089526FFD8CF80916F009091700079
:10064000C0917200D0917300C80FD91FC80FD91F75
:1006500010C026FFD1CF80916F0090917000C091A3
:100660007200D0917300879FC10DDF1F979FC00D4F
:10067000D11D70E1F894DBBDCABD78BF8CB59DB5C6
:100680000160F09363007894C81BD90B0AF40E7FC5
:100690000895279670E1F8948CB59DB5C80FD91FC1
:1006A000DBBDCABD78BFA092630001607894089555
:1006B00014FD79DE00FDFCCF0895F5BD80E488BF10
:1006C000E8E7959AC09A939A94989798AB9808956A
:1006D000829BF09366008091660085FF0895E0E0BC
:1006E000F894FCE185919491F0E07894019602975A
:1006F000A8F3F894F7BBF4BBF1BB88E181BDF1BD71
:100700008091600081BF7CCAF0938100F0938200E9
:10071000F093830089D32F7D8FEF80939B00F6BFEA
:1007200008958091CC00853A31F48091CB008031DE
:1007300010F488940895089408958091D400803628
:10074000F1F48091CE008031D0F48091CF008730D9
:10075000B1F48091D000823090F48091D1009091DA
:10076000D200883360E0960750F0813460E096074D
:1007700030F48091D300882311F088940895089470
:1007800008958FEF8093D40083D580F0BBD570F0AF
:1007900010D660F080918600909187008093CA0007
:1007A0009093CB0085EA8093CC0007C08FEF8093B5
:1007B000CA008093CB008093CC00089581E08093A1
:1007C0008100F0938200F09383002ED32F7D8FEF72
:1007D00080939B00F6BF08958091810080FF08956B
:1007E0008170826080938100F0938200F093830097
:1007F000F6BFA3DF18F08DED92E002C08DED92E020
:10080000809384009093850008958091810081FFFA
:10081000089582FD089580918200909183006091F7
:1008200084007091850086179707C8F131D5C0F113
:1008300069D5B0F1BED5A0F174DFE0F17EDF08F438
:100840000DC3BFD55FD560F1B4D550F1EDD2809125
:1008500081008F718C6180938100809186009091DE
:10086000870080939E0090939F00809389009093CF
:100870008A00F0938B00F0938C00F0938D00F0933E
:10088000A000F093A100F0939C00F0939D00F093E2
:100890009200F093A200F093A3002062A9D50895DE
:1008A0008091810081708093810007DF93DCCDDC33
:1008B00091DC0895809181008D7F80938100FDDE21
:1008C00089DCC3DC87DCC1DC85DC08958091810094
:1008D00082FF089586FD08C090919A00992321F027
:1008E000F0939A0009D284D58091810084FF089505
:1008F0008F7E8093810006D598F25BD588F2809137
:10090000810088608093810086FD77C302D0E2D1A8
:10091000089580918C0090918D008F5F9F4F809300
:100920008C0090938D00823A67E0960708F08BC2A6
:1009300040D06091890070918A00809186009091EA
:100940008700681B790B7F7073FD706FDB0160910E
:1009500086007091870080919E0090919F00609327
:100960009E0070939F00681B790B7F7073FD706F02
:100970008091810087FF89C0CD0197FF03C09095CA
:1009800081959F4F8332C0E09C0708F07EC0CB0169
:1009900097FF03C0909581959F4F992309F075C0EB
:1009A000833008F072C0F0939C00F093920023D241
:1009B0000895A0918900B0918A006091CA00709159
:1009C000CB006A1B7B0B7F7073FD706F862F872BAC
:1009D00031F4809181008068809381000895DD2743
:1009E00077FF04C0D395709561957F4FC0918B00C0
:1009F00087ECC80FC0938B0080E18F1F882301F123
:100A0000E894772341F4861730F0A091CA00B091A2
:100A1000CB00689408C0DD2319F4A80FBF1F02C0E3
:100A2000A81BBF0BBF7012D058F0A0938900B093E1
:100A30008A0036F480918100806880938100089557
:100A4000809181008F77809381000895BD0180910E
:100A5000860090918700681B790B7F7073FF04C03C
:100A6000706F709561957F4FCC27DD2787E08823D5
:100A700051F0C60FD71F8A95E1F7C13080E1D80742
:100A800010F48894089508940895CB0160E28ED004
:100A90008F939F938091A0009091A1006A2F6B2B60
:100AA00039F0682F692B41F0692F6B2767FF04C06D
:100AB000F093A200F093A300A093A000B093A10034
:100AC0008091A2009091A3008A0F9B1F97FD07C001
:100AD000803060E4960748F080E090E406C0803003
:100AE00060EC960710F480E090EC8093A200909365
:100AF000A300CD016CE05AD0DC018091A20090915E
:100B0000A300C5E095958795CA95E1F762E04ED0C0
:100B1000CB2FA80FB91F6C2F692767FF01C00BC02F
:100B20006C2F6B2767FF07C0C7FF03C0AA27B0E879
:100B300002C0AFEFBFE79F918F91CB2FA81BB90BDE
:100B40006C2F692767FF0BC06C2F6B2767FF07C0EF
:100B5000C7FF03C0AA27B0E802C0AFEFBFE7BD01DF
:100B6000CC2777FF04C0C395709561957F4F862F82
:100B7000872BA9F0772321F4862F8F3F10F009F0FF
:100B80008FEF8093980061E0CC2309F0619580910C
:100B9000D000882309F06195609392003BC0F093E8
:100BA0009800F0939C00F093920034C0762F7F70F1
:100BB00062956F7097FF04C0909581959F4F706804
:100BC000EC018827992777FF06C0703851F08C0F09
:100BD0009D1F7A95FACF772321F08C0F9D1F7A9570
:100BE000FACF96958795969587959695879596953C
:100BF0008795662349F08C0F9D1F97FF03C08FEFE9
:100C00009FE702C06A95F5CF77FF03C09095819565
:100C10009F4F0895609186007091870088279927DB
:100C2000C7E0CC23B9F0860F971FCA95E1F79F70F4
:100C3000C091D000CC2331F066277727681B790B51
:100C4000CB019F706091CD007091CE00860F971FF1
:100C50009F7004C088279927F093920080938E009C
:100C600090938F0060919200662339F01AF08050C3
:100C70009C4F02C0805094409F708093900090934E
:100C8000910001D008956627923040F011F48B3A1C
:100C900028F08B5A924063956530B0F360939400CE
:100CA000DC01B695A795B695A795B695A795AA0F19
:100CB000BB1F7FB7F894EF93EAE4FDE0EA0FFB1F58
:100CC00085919491EF91FF277FBF8093950090933A
:100CD0009600089580919200882329F080918100E8
:100CE00085FF03C0089584D3089506D081D3F0937F
:100CF0009900F0939A00089560919400A091970054
:100D00008091950090919600A91708F0A91BA80F53
:100D100020F0A91738F0A91B01C0A91B6395663004
:100D200008F06627A0939700609393008091980045
:100D3000899F802D912D81589F4F890F10F08F3FF3
:100D400009F4939590939C00089500DD03DE06E07E
:100D500009E10DE310E413E616E719E81CEA1FEBBE
:100D600022EC25ED28EE2CEF2FF032F135F238F39E
:100D70003BF43EF541F644F747F84AF84DF950FA8E
:100D800053FA56FB59FB5CFC5EFC62FD64FD67FE9A
:100D90006AFE6DFE70FE73FF76FF78FF7BFF7EFFBD
:100DA00080FF83FF86FF88FF8BFF8DFE90FE93FE02
:100DB00096FE98FD9AFD9DFD9FFCA2FCA4FBA7FB5F
:100DC000A9FAABF9AEF9B0F8B2F7B4F6B7F6B9F5DF
:100DD000BBF4BDF3BFF2C1F1C3F0C5EFC7EEC9EC80
:100DE000CBEBCDEACFE9D0E7D2E6D4E5D5E3D7E245
:100DF000D9E0DBDFDCDDF0939C00F09392005DDC5A
:100E000013D02F7DF093A000F093A100F093A200E7
:100E1000F093A300809181008170809381008FEF17
:100E200080939B00F6BF0895F0939400F093950093
:100E3000F0939600F0939700F0939800F093990048
:100E4000F0939A000895D7DFC5D9FFD9C3D9FDD94A
:100E5000C1D9FBD9BFD9F9D9BDD9089520628DE494
:100E600080939C00F0939D008093D30088E390E0F2
:100E70008093D1009093D200809181008F7D8C650A
:100E80008093810081E08093A400F093AA00F09306
:100E9000AB00F093B200F093B30008D001D00895F6
:100EA0008091AA0090E860E0BDD20895F093A5007B
:100EB000F093A600F093A7008091860090918700A0
:100EC0008093AC009093AD008093A8009093A9000C
:100ED000089560918600709187008091AC00909198
:100EE000AD006093AC007093AD00681B790B7F7010
:100EF00073FD706F089560918600709187008091F6
:100F0000AE009091AF006093AE007093AF00681B8D
:100F1000790B7F7073FD706F0895EDDF8091B200E3
:100F20009091B300860F971F8093B2009093B30007
:100F30000895E894CB0197FF03C0909581959F4F4A
:100F40009923F9F48430E8F4609186007091870069
:100F50008091A8009091A900681B790B7F7073FFA6
:100F600004C0706F709561957F4F772351F467309F
:100F700040F48091A70083958093A7008034E0F42B
:100F80000AC0F093A700809186009091870080931B
:100F9000A8009093A9008091A5009091A6008F5F72
:100FA0009F4F8093A5009093A6008D3D62E0960729
:100FB00008F0689488940895089408958091AA0090
:100FC0008395863008F088278093AA000895809141
:100FD000AA00882309F486E08A958093AA000895E0
:100FE00077FF03C0709561957F4F613084E078078B
:100FF00010F488940895089408958091A400813095
:1010000009F40AC0823009F415C0833009F43AC0EB
:10101000843009F45FC021C15CDF8BDF0EF417C19F
:1010200008F00895F093AB00C9DF82E08093A4003C
:101030003DDF36CF4EDF7DDF0EF409C108F00895A5
:101040008091AB0083958093AB00863018F4B6DFB7
:101050002DDF26CFF093B200F093B300809186008D
:10106000909187008093B0009093B1008093AE0080
:101070009093AF00F093AB00A1DF83E08093A400D6
:1010800015DF0ECF26DF55DF0EF4E1C008F008951E
:1010900044DFA6DF08F4DDC08091AB008395809328
:1010A000AB008C3018F48ADF01DFFACE8091B200F9
:1010B0009091B3008093B4009093B500F093B20088
:1010C000F093B300F093AB0082DF84E08093A40040
:1010D000EDDEE6CEFEDE2DDF0EF4B9C008F0089599
:1010E0001CDF7EDF08F4B5C08091AB008395809350
:1010F000AB008C3018F46BDFD9DED2CE6091860065
:10110000709187008091B0009091B100681B790BBD
:101110007F7073FF04C0706F709561957F4F772368
:1011200009F099C0613208F096C06091B2007091E8
:10113000B300759567958091860090918700861B16
:10114000970B9F708093AE009093AF006091B400B6
:101150007091B500CC2777FF04C0C3957095619559
:101160007F4FC093D0006093B4007093B50080911E
:10117000B2009091B300CC2331F497FF6CC09095EE
:1011800081959F4F02C097FD66C08093B2009093F7
:10119000B3006817790718F4861B970B04C0DB01AE
:1011A000A81BB90BCD01992309F055C0813208F075
:1011B00052C06091B4007091B5008091B2009091DE
:1011C000B300860F971F969587958093B4009093F0
:1011D000B5006091B4007091B500683681E0780781
:1011E00008F439C0C7E0C093CF006091AE007091A1
:1011F000AF00AA27BB27C7E0A60FB71FCA95E1F724
:10120000BF708091D000882331F4882799278A1BEA
:101210009B0BDC01BF70A093CD00B093CE004DDAE4
:10122000809181008F798093810080E68093D40043
:1012300029D868D008F434CBBCD008F431CBC1D065
:1012400061D008F42DCBB5D008F42ACBFFCAA4E0B6
:1012500005C0A6E003C0A7E001C0A9E02F7D8091F2
:10126000810081708093810028DACA2FB3D7CA9594
:1012700011F0EBD7FBCF089586BF9FEFA89586B7F7
:1012800087FD04C09A95D1F708940895889408952D
:10129000F6BFF1B98CE080B984EAEEDF90F181B15C
:1012A000887F883071F58CE683B984E8E5DF48F102
:1012B00081B1887F883129F587E083B984E8DCDF54
:1012C00000F181B1887F8832E1F4F3B984E8D4DF9A
:1012D000C0F081B1887F8832A1F481E083B984E8CD
:1012E000CBDF78F081B1887F883259F484E986BFFA
:1012F0009FEF86B784FF03C09A95D9F756C08894AC
:10130000089553C0F6BFF1B98CE080B984EAB4DF28
:1013100008F44BC081B1887F883009F046C08CE664
:1013200083B984E8A9DF08F440C081B1887F88319F
:10133000E1F58BE083B984E89FDFB8F181B1887F64
:10134000883299F584EA98DF80F181B1887F803115
:1013500061F58DE683B984E88FDF38F181B1887F4C
:10136000803419F584EC88DF00F181B1887F803505
:10137000E1F483B18093880084EC7EDFB0F081B12A
:10138000887F803591F483B18F708093870084E8E3
:1013900073DF58F081B1887F883539F483B1809349
:1013A000860084E986BF8894089584E986BF0894FE
:1013B00008958091880085FF02C08894089508945C
:1013C00008958091880084FF07C0C8E00AD080910A
:1013D000880083FF089536D78091880083FF0895A1
:1013E000CAE0F8D6CA9511F030D7FBCF66D9089578
:1013F00080919200882341F0809193009091D100D8
:101400006091D2000FC008958091810085FF0895FA
:1014100054D9809181008F7D809381008FEF8093DC
:101420009B000895863008F078C07091810076FFA7
:101430000AC0903770E0670708F46FC0913870E019
:10144000670758F06AC0983370E0670708F465C012
:10145000913470E0670708F060C0A82FC92FD62F1D
:101460008091810085FF0CC080919B008A1741F418
:101470007FB7F8947F933DD020687F917FBF089518
:101480007FB7F8947F9319D98BE18A95F1F7287F7C
:101490002068A23030F0A43010F0246003C0216036
:1014A00001C02260A13051F0A23041F0A33021F000
:1014B000A43011F0959803C0C09801C093988BE1B7
:1014C0008A95F1F7A0939B008091810080628093C0
:1014D00081000FD025FD02C0EAE201C0EAE38F2EB1
:1014E0008FEF84BD80E488BF81E085BD7F917FBFA1
:1014F000089580E293E08C1B9D0B25FD04C07AE2E9
:101500009F1370E201C07AE3C09580951E012C0103
:10151000709365001D7F11600895CFD88091810080
:101520008F7D809381008FEF80939B00089500242E
:101530000FBEEFE5F4E0FEBFEDBF0292E036F0052E
:1015400009F4EEE1E015F005C1F781B78093600082
:10155000A4B6F4BF81E088BB81E087BBF5BB88E01F
:1015600084BB8AE282BB8AEB81BB82E083BF81E0DD
:101570008EBDF5BD88E181BD88E081BD66D682D68D
:1015800072D67894A0FAAF1226F424D62CD634D68C
:101590001EC0A2FE04C030D61DD6006818C0A1FE31
:1015A00002C031D614C0F894A3FE05C013D612D6DB
:1015B00023D622D6FBCF46D64A2D58E040FF13D67D
:1015C00040FD21D640D646955A95C1F7F4CF9CD818
:1015D000B998BA980D7F24D784E588BF89BF83E086
:1015E00085BF80E48BBFBB24137EF0936600F0932D
:1015F0006700A89514FD0AC06BD8809167008837F2
:10160000C1F78CE380936700F7D5F3CF73D6C09111
:101610007900D0917A00209631F78AE0B81648F325
:10162000812F8C7009F0FBBFEED5EDD5ECD50B7F8B
:1016300044D8D2D80D7FB99ABA98F0936600F09347
:101640006700A89514FD0DC041D9BB20D1F740D843
:10165000809167008E31A9F730D8F7D5CDD5C3D5A5
:10166000B6CFA1D6BB2069F3209611F4CED8E5CF32
:10167000A5D823D880B7886080BF3798BA98B99822
:10168000CEE8D0E06E010260FDD0F0937500F093DB
:101690007600F093770082E0B82E86E080936200B7
:1016A0008CE08093610081E085BD17FD46C0EED0DF
:1016B00087E087B9C09A10FD9598E6D080E087B999
:1016C000F894287F226062B3939A72B385B3AB9883
:1016D00095B38913979A6713C0987894D7D086E00A
:1016E00087B9959A10FD9398CFD087E087B9F89481
:1016F000287F216068B3C09A78B382B3979892B379
:101700008913949A671395987894C0D080E087B92C
:10171000939A10FDC098B8D086E087B9F894287FD6
:10172000246062B3959A72B382B3949892B389138A
:10173000AB9A67139398789445C0A6D080E087B998
:10174000F894287F216062B3939A72B385B3AB9803
:1017500095B38913949A67139598789497D087E0F6
:1017600087B9C09A10FD93988FD086E087B9F89416
:10177000287F226062B3959A72B382B3949892B331
:101780008913979A6713C098789480D080E087B9BE
:10179000939A10FD959878D087E087B9F894287FC0
:1017A000246068B3C09A78B382B3979892B38913D0
:1017B000AB9A67139398789469D086E087B9959A25
:1017C00010FDC09880916100803010FF71F1E6013A
:1017D000209661F18C30C8F4839580936100629605
:1017E00086ED90E060917700709176007C5F709359
:1017F000760021F4605FD9F060937700603170F07B
:10180000703360F083E290E009C01F7BF0937700B3
:10181000F0937600BA986B9687E593E0C817D907DE
:1018200010F06C0142CF6E0140CF02CF21CF45D7DF
:101830000D7F08D507D5E7D4B6D52096D1F7C7CE0A
:10184000E8E720FD959A21FDC09A22FD939A94988D
:101850009798AB98BA9A81E0809362005EC016FDBB
:1018600009C0BC3030F0BBE0AB1708F4AB2FE2D6B8
:1018700047C0BA9AF093610070917500715F16FDD0
:1018800070937500106449C01F7D01C01062809183
:101890006200815050F08093620016FF19C0C0E0D2
:1018A000DFEFAF2EF6D6A3E02AC0E83711F4EAE75F
:1018B000BA9816FD3EC07BE1CCD6FAD679E5C9D6FA
:1018C00000FFBECF14FD6FD568B1612765FDF8CF6D
:1018D000A0917000B0917100B695A795B695A795A7
:1018E000A330BF0750F051F0AA31BF0708F0AAE1BA
:1018F000AC3020F073E3ADD602C0A3E09BD6BA2F84
:1019000000FFADCF14FD4FD568B1612765FD03C061
:10191000AB17AF1FF5CFAA9599F7A4D516FFC8D678
:10192000809162008F131E7FBF1208958F918F9157
:101930007FCEC0E0D0E070E0A72E809161008230C1
:1019400030F47091750080E090E860E034D6A1D664
:10195000AFD6C0E0D8EB7BE0A72E9BD6AFEFCFCFC2
:02196000E6CDD2
:101C0000E4E0FFE5FEBFEDBF00E0ECEBFEE0C0E886
:101C1000D0E0A0E6B0E042E045BD5CEE539571F047
:101C200040EC04BD48BFA03619F0E8B6E6FC46C05B
:101C30008299F9CF04BD48BFE8B6E6FCE1C1829BBA
:101C4000FBCF04BD48BFE8B6E6FCE8CF8299FBCFE6
:101C500034B404BD48BFE8B6E6FCD2C1829BFBCFDA
:101C600024B4022C030C802C07940694402C069478
:101C70008008809420943094409460EE83E084BC8B
:101C800048BFE8B6E6FCBCC1829BFBCF84BC48BF22
:101C9000E8B6E6FCC3CF8299FBCF0894E8B6E6FC31
:101CA00023C0829BFBCFE8B6E6FCB8CF8299FBCF7E
:101CB0008894E8B6829BE6FC17C0FBCF43BC87E163
:101CC000929A8A9A34BC48BFE8B6E6FEFDCF929855
:101CD00024BC48BFE8B6E6FEFDCF8A9589F7C0E68A
:101CE000D0E060E081E00BC0679548F6815068F570
:101CF0005CEE0994CA17DB07D1F0699188E066951C
:101D0000929A34BC48BFE8B610F0E7FC02BBE6FE8E
:101D1000FACF929808F0929A24BC48BFE8B610F027
:101D2000E7FC02BBE6FEFACF8A9549F7E3CF929A29
:101D300034BC48BFC0E8D0E0A0E6B0E0E8B6E7FEBB
:101D4000FDCF8A9802BB6ACF80E060E898CFECEBC9
:101D5000FEE0C0E8D0E0F8CF009000000090000066
:101D60000090000000900000009000000090000033
:101D70000090000000900000000000006B3121F78F
:101D8000562E3796E1CF962E56263496DDCF762EF8
:101D900056263496D9CF662E56263496D5CF6E3039
:101DA000B1F656263596D0CF69935626CF3584E0C6
:101DB000D80768F681E0681A700A09F43C96C4CF27
:101DC0006511C5CFC0E8D0E0699199918991FD0175
:101DD0007BE170839182028372E073837EE074837F
:101DE0006583068317966130A1F48BE0838388E0D6
:101DF0008D93EF01ECEDFFE185918D93E43EE1F7EA
:101E0000FE01819161918627EA17FB07D9F78D932F
:101E10009ECF6D3151F5792F90E0039683839283A5
:101E200003970D938A95E9F789916991603380074B
:101E300094E0790779F460878991803059F4699149
:101E400060308EE131F0613083E919F0623087E073
:101E500009F482870D93D5CF8017900709F5D990A3
:101E6000C9905601AA0CBB1CCCCF6330E1F06230A4
:101E700041F2603131F2613121F2663069F3623151
:101E8000F1F1833F73E0970758F4643109F166314B
:101E900069F127966531C1F16331F9F10000000065
:101EA00080EC8683AECF90398FE071F0913982E07B
:101EB00059F092398AE041F0943982E329F0903860
:101EC00080E011F0913861F78D9383E0838399CF9F
:101ED00049D0EF01F5018FD076FDFDCF65916D936F
:101EE0000197E1F75F01FE010D938BCF3BD011E02D
:101EF0003ED06DB36D930197D9F70D9382CF47D044
:101F0000000080E092E0689416E06FEF0EF06991B7
:101F10002ED00197D1F7E89474CF8F7F61E07F01D5
:101F2000F5010990199068D032960297D1F70F0108
:101F3000F501500163E0E03C7FE1F70719F058D06C
:101F4000F7015FCF0BD065E009D061E107D0F8CF92
:101F500077B770FDFDCFE199FECF0895F9DF67BF38
:101F6000E8950895039692838383039708953AD062
:101F7000DFBACEBA0894C01ED01E762FE09A6DB399
:101F8000671312FF08957DBBE29A1CBB08957F0181
:101F9000E0E0FCE163E0E054F0402ED0E1F76F01B7
:101FA000F70108950000000000000000000000009C
:101FB0000000000000000000000000000000000021
:101FC000687474703A2F2F6769746875622E636F36
:101FD0006D2F73696D2D2F7467792F00415652490B
:101FE00053505F3277B770FDFDCFE199FECF089572
:101FF00003D065E001D061E1F5DF67BFE8950895A2
:00000001FF
