:020000020000FC
:1000000080CA8AC018951895099486C04DC0189565
:1000100055C0189518950DC11895189518951895EF
:1000200018959AC01895697A40744042405B0290D6
:10003000FFFF7F0000B9FFFFFFFFFFFFFFFFFFFF94
:100040009FB68A9409F4EAE29FBE18959FB68A94F7
:100050009FBE189520FD959A21FDC09A22FD939A86
:1000600020FD949A21FD979A22FDAB9AECE3832C14
:1000700024BC1895A89518958F12E8CFA89511FD66
:10008000E9CFE0916500852C20FD949821FD97989B
:1000900022FDAB9844BC27FD189520FD959821FDC5
:1000A000C09822FD939818959FB6409163004150E7
:1000B00008F40E7F409363009FBE18959FB6409151
:1000C00064004395409364005091840051FF0BC03D
:1000D0005091850053955093850029F450918600E6
:1000E0005395509386005091840052FF03C0506195
:1000F000509384004F7019F4BB2019F0BA949FBE3E
:1001000018954091660043954093660040916700C2
:10011000439540936700F3CF4CB55DB5829B0DC00E
:100120009FB65A5659BD48BD42E045BF48E048BF5A
:100130009FBE18959FB604600BC098B693FCFACF8B
:100140009FB63A0148B559B55659641A750A1061F7
:1001500043E045BF9FBE18959FB641B1403669F157
:100160004038B1F1403A69F1483A41F0483B79F002
:10017000483F11F04F1321C045ED20C067FC0DC072
:10018000F3B94AEF10FD4FEF4093810016C067FCB2
:1001900007C04091810043B9F6CF42EB4093830002
:1001A0005E2FE09183004191E093830043B9EA3BE5
:1001B000E52F09F002C045E801C045EC46BF9FBEEF
:1001C0001895409182004F131461F0938200F5CF8F
:1001D00040918200439540938200413019F473B0FE
:1001E0006F2EEBCF423011F463B0E7CF433021F4F0
:1001F00043B1423001F7E1CF4A3061F05E2FEFEAC0
:10020000E40F43B14083E52F5091B900540F509350
:10021000B900D3CF43B15091B30056FD006157FDF3
:100220000062451B50E9450F5093B3004093B9005D
:10023000C4CF90E578ECBA9AC098949A1ED0E1F7B2
:10024000BA98089594E674EBB99A9398979A15D052
:10025000E1F7B998089598E770EA9598AB9A0DD0B0
:10026000E1F708959CE87CE8BA9AB99A9398949A31
:1002700004D0E1F7B998BA980895F2BF82B78032F6
:10028000E8F3959AC09A939A94989798AB9860E1FE
:10029000F2BFA89582B78717E8F36A95C9F79A95D0
:1002A000089500D000D000D09FE060E1F2BF81E06F
:1002B00088BFA89588B780FFFDCF6A95B9F79A9552
:1002C000A1F708958091AA009091AB0089569A47B2
:1002D00039F0CAEAD0E0E6E285918993C43CE1F7BF
:1002E0000895F894EF93F5DFEF9178940895809155
:1002F000600081BF0F7DCAEAD0E080E890E0A89559
:10030000E199FDCF67B760FDFACFC43C81F09FBB98
:100310008EBB0196E09A6DB317F06993F0CF799197
:100320007DBBF894E29A6713E19A7894E8CFBCDF3A
:100330008FEF81BF0895000C111CAA1C8A95D9F774
:100340000895869FA12C969FA00CC11DDF1F879F3B
:10035000A00CC11DDF1F979FC00DD11D089512FD78
:100360008EC01F7EC3019053660B602763FD9DC046
:1003700007FD52C0CCEAD0E001C093DF42D0BC01FF
:10038000A895FF9FAA24CC3A31F49FE160348BE515
:10039000780798F441C08091AC0068178091AD0057
:1003A000780760F792E2CE3A41F08091AE0068178C
:1003B0008091AF00780710F390E2892EA89514FF82
:1003C000FDCF1F7E1ED0080E191EAF1E861B970B79
:1003D00080569F4F8154914080F68A9479F783E04C
:1003E000AADF1992A992C03B09F413D234DFCE3AA6
:1003F000C1F25ADF30DFC03B11F056DF2CDF77DF70
:1004000056C0C30103FF0895A3E0880F991FAA9562
:10041000E1F7089512FD33C01F76C301903360F0F9
:1004200003FD11C0C0917F00D09180008C1B9D0BFB
:1004300060F4CC27DD2716C0963028F0803C62E1BE
:10044000960703FD78F30460089560917B00709136
:100450007C00C8E3D0E075DFC73583E0D80710F033
:10046000C7E5D3E0C0937900D0937A0001FF03C0C1
:1004700082E0B82EB4C08CE0B816BF1E0895E30128
:100480001F7E8091B80080FB17F9CC0FC295209693
:1004900049F3CE016DE373E0DCCFC3E07695679559
:1004A00096958795CA95D1F7089588E00827809199
:1004B000AE009091AF006091AC007091AD0003FD73
:1004C000ECDF80937F0090938000681B790B05D050
:1004D00080937B0090937C00089585E595E00196DC
:1004E000A8959F3F890721F0C0EEDCEF2ADFB9F71E
:1004F0000895F8948CB59DB56091640078B77894B0
:10050000903872FD6F1FC0916900D0916A00A09071
:100510006B008093690090936A0060936B00009079
:100520006C0010906D0070916E00C0936C00D093C1
:100530006D00A0926E0080199109670B94306F07CF
:1005400028F480E094E060E0D694C79490386F0778
:10055000A7E5B3E0F0F0A1E0B1E27D01A0E8BBEADD
:10056000FF9F771B0AC0771F001C111C7817090614
:10057000160618F0781B090A160AAA1FBB1FEE1CE4
:10058000FA9489F7A095B095A63DBF0710F4A6EDA3
:10059000B0E07D0180936F009093700060937100D4
:1005A000669597958795C0916900D0916A00A09053
:1005B0006B0073E347D0C0937200D0937300A09296
:1005C000740090316F0718F02F7B5FD002C0206459
:1005D00097D014FD1FCFC0917900D0917A00CE152D
:1005E000DF0508F0E701CC15DD0508F0E60187E539
:1005F00093E08C1B9D0B01F1209601F11D7F116092
:1006000016FF04C0880F991FCC0FDD1F689470E39C
:100610009F1370E280319F0728F0E89407977AE2F1
:100620009F1370E2C09580951E01F8942C01709381
:10063000650027F9789408951360E8CF1C7F7CE368
:100640006894F0CF879FC10DDF1FAF1E979FC00D2D
:10065000D11DAF1E679FD00DA11C089580916F0022
:100660009091700060917100C0917200D091730000
:10067000A09074000895F2DFC80FD91FA61EC80FFE
:10068000D91FA61E02C0EADFDDDF79B7072E7B7E09
:1006900079BF70E1F894DBBDCABD78BF8CB59DB55C
:1006A000789401606091640078B7903872FD6F1F94
:1006B000C81BD90BA60AA09263000AF40E7F09BEDC
:1006C000089526FFD8CF80916F0090917000C0915F
:1006D0007200D0917300C80FD91FC80FD91F10C066
:1006E00026FFD1CF80916F0090917000C091720071
:1006F000D0917300879FC10DDF1F979FC00DD11D43
:1007000070E1F894DBBDCABD78BF8CB59DB50160C2
:10071000F09363007894C81BD90B0AF40E7F0895F8
:10072000279670E1F8948CB59DB5C80FD91FDBBD35
:10073000CABD78BFA092630001607894089514FD4B
:1007400069DE00FDFCCF0895F5BD80E488BFEAE3D3
:10075000959AC09A939A94989798AB980895829B8B
:10076000F09366008091660085FF0895E0E0F894BC
:10077000FCE185919491F0E0789401960297A8F3BA
:10078000F894F7BBF4BBF1BB88E181BDF1BD80916A
:10079000600081BF35CA82E582B985EC86BF0895C5
:1007A000F0938400F0938500F09386008FEF8093A0
:1007B0009400F6BF08958091BC00853A31F4809191
:1007C000BB00803110F488940895089408958091B6
:1007D000C3008A35E1F48091BE008031C0F480917D
:1007E000BF008823A1F0853190F48091C000823051
:1007F00070F48091C1009091C200883360E0960748
:1008000030F0813860E0960710F4889408950894D9
:1008100008958FEF8093C30081D360F080918700AB
:10082000909188008093BA009093BB0085EA8093F2
:10083000BC0007C08FEF8093BA008093BB00809309
:10084000BC00A9DF089581E080938400F0938500C7
:10085000F09386008FEF80939400F6BF0895809107
:10086000840080FF08958170826080938400F093FB
:100870008500F0938600F6BF08958091840081FF83
:10088000089582FD08958091850090918600853CB1
:100890009440D0F043D3C8F08EDF08F198DF08F41D
:1008A0000DC1809184008F798C6180938400809148
:1008B00087009091880080938A0090938B00F0933A
:1008C0008900F093920074D3089580918400817818
:1008D0008093840039DFADDCE7DCABDC08958091E8
:1008E00084008D7F809384002FDFA3DCDDDCA1DC1E
:1008F000DBDC9FDC08958091840082FF089584FFF3
:1009000008958F7E8093840009D3F8F2809184004B
:1009100088608093840086FD27C102D049D3089562
:1009200060918A0070918B008091BA009091BB0019
:10093000861B970B9F7093FF15C0906FEC01D095AD
:10094000C195DF4FD03019F4C530F0F0E9F0809157
:10095000890092E3891B8093890094E0690B7F0BE7
:100960007F7018C0892B81F0903019F4853060F0C9
:1009700059F08091890092E3890F8093890094E077
:10098000691F7F1F7F7006C06091BA007091BB0025
:10099000F093890060938A0070938B0080918700A8
:1009A00090918800681B790B7F7073FD706F609366
:1009B0008C0070938D00CC2777FF04C0C395709591
:1009C00061957F4F772311F4633050F061E0CC23C1
:1009D00009F061958091C000882319F0619501C0EC
:1009E000662760939200662369F480918A00909153
:1009F0008B006091BA007091BB008617970711F4C5
:100A000052D00895609187007091880088279927B7
:100A1000C091BF00CC23B9F0860F971FCA95E1F7AC
:100A20009F70C091C000CC2331F066277727681BE8
:100A3000790BCB019F706091BD007091BE00860F55
:100A4000971F9F7004C088279927F0939200809386
:100A50008E0090938F0060919200662339F01AF017
:100A600080509C4F02C0805094409F7080939000B3
:100A70009093910001D008956627923040F011F4D0
:100A80008B3A28F08B5A924063956530B0F39130E1
:100A900038F011F4863520F06395663008F066274B
:100AA00060939300089550DE80918400817080935C
:100AB00084008FEF80939400F6BF089580918400A6
:100AC0008F7D8C658093840081E08093950088E31E
:100AD00090E08093A2009093A300F0939600F0938F
:100AE0009700F0939800F0939900F0939E00F09394
:100AF0009F00809187009091880080939A00909346
:100B00009B008093A4009093A50001D0089580914C
:100B10009800909199008093900090939100ACDFA1
:100B2000809193009091A2006091A3005AD2089501
:100B3000609187007091880080919A0090919B004D
:100B400060939A0070939B00681B790B7F7073FD14
:100B5000706F80919E0090919F00860F971F8093E9
:100B60009E0090939F00089580919500813009F434
:100B700013C0823009F42CC0833009F476C084306D
:100B800009F493C0853009F4A3C0863009F4C5C0C8
:100B9000873009F0A9C1EAC08091960083958A3711
:100BA00018F4809396000895F09396008091870042
:100BB000909188008093A4009093A5008BEA92E026
:100BC000809398009093990082E0809395009FCF46
:100BD00060918700709188008091A4009091A50099
:100BE000681B790B7F7073FF04C0706F70956195FF
:100BF0007F4F7723E1F46430D0F4809196008395A1
:100C00008C3018F4809396000895F09396008091AC
:100C1000A2009091A300803860E0960708F064C1BC
:100C20008C5F9F4F8093A2009093A30070CF809120
:100C3000A2009091A300885F9F4F813860E09607E3
:100C400010F080E890E08093A2009093A30080933E
:100C5000C1009093C200F0939800F0939900F09334
:100C6000960083E08093950052CF80919600839503
:100C70008A3718F4809396000895F0939600F093C5
:100C80009700F0939E00F0939F00809187009091D1
:100C9000880080939C0090939D0080939A0090938D
:100CA0009B0084E080939500089542DF6091980056
:100CB00070919900685F7F4F7F7060939800709388
:100CC00099003ED008F023CF85E0809395001FCF98
:100CD0002FDF8091960083958A3718F480939600D1
:100CE000089580919E0090919F008093A000909322
:100CF000A100F0939E00F0939F00F0939600F09374
:100D00009700809187009091880080939A0090933B
:100D10009B0086E08093950008950ADF609198001B
:100D200070919900685070407F7060939800709344
:100D3000990006D008F0EBCE87E080939500E7CECF
:100D400080919600909197008F5F9F4F80939600BF
:100D500090939700803041F4923031F4F0939600F4
:100D6000F09397000894089588940895E1DE8091A7
:100D7000960083958A3718F48093960008956091C1
:100D800087007091880080919C0090919D00681B65
:100D9000790B7F7073FF04C0706F709561957F4F02
:100DA000772309F0A1C0613208F09EC06091A000D5
:100DB0007091A100CC2777FF04C0C3957095619511
:100DC0007F4FC093C0006093A0007093A1008091FA
:100DD0009E0090919F00CC2331F497FF85C09095A1
:100DE00081959F4F02C097FD7FC080939E00909396
:100DF0009F006817790718F4861B970B04C0DB0166
:100E0000A81BB90BCD01992309F06EC0813208F0FF
:100E10006BC06091A0007091A10080919E009091A4
:100E20009F00860F971F969587958093A0009093BB
:100E3000A1006091A0007091A100643B80E0780760
:100E400008F452C0DB01C1E0B03130F4A60FB71F87
:100E5000C395C531C8F348C0A050B041CD01880F3B
:100E6000991F6817790708F4CA95CC23E9F1C09354
:100E7000BF00AA27BB278C2FA60FB71F8A95E1F7C3
:100E8000A050B041B7FF03C0B095A195BF4FBB23A1
:100E900059F5A13448F56091870070918800AA2720
:100EA000BB27C091BF00A60FB71FCA95E1F7BF705F
:100EB0008091C000882331F4882799278A1B9B0BD7
:100EC000DC01BF70A093BD00B093BE003DDC8091FB
:100ED00084008F79809384008AE58093C30007DAC9
:100EE0001DD008F4F2CCDDCC809184008178809311
:100EF00084002ADC9ED9D8D99CD9D6D99AD9D4D9FC
:100F000098D9089586BF9FEFA89586B787FD04C03E
:100F10009A95D1F70894089588940895F6BFF1B989
:100F20008CE080B984EAEEDFF8F181B1887F883007
:100F3000D9F58CE683B984E8E5DFB0F181B1887F2B
:100F4000883191F58EE083B984E8DCDF68F181B106
:100F5000887F883249F584EAD5DF30F181B1887F16
:100F6000803111F58DE683B984E8CCDFE8F081B1FA
:100F7000887F8034C9F484ECC5DFB0F081B1887F0C
:100F8000803591F483B18F708093880084E8BADF54
:100F900058F081B1887F883539F483B18093870018
:100FA00084E986BF8894089584E986BF08940895EB
:100FB00080919200882339F0809193009091C10034
:100FC0006091C2000EC08091840085FF0895BCDB53
:100FD000809184008F7D809384008FEF80939400B4
:100FE0000895863008F062C0983370E0670708F40F
:100FF0005DC0913870E0670708F058C0A82FC92F6E
:10100000D62F8091840085FF0CC0809194008A17B0
:1010100041F47FB7F8947F9339D020687F917FBFE8
:1010200008957FB7F8947F938FDB8BE18A95F1F772
:10103000287F2068A23030F0A43010F0246003C074
:10104000216001C02260A13051F0A23041F0A330F4
:1010500021F0A43011F0959803C0C09801C0939876
:101060008BE18A95F1F7A0939400809184008062CF
:10107000809384000BD0EAE28F2E8FEF84BD80E452
:1010800088BF81E085BD7F917FBF089587E593E0AC
:101090008C1B9D0B7AE29F1370E2C09580951E0118
:1010A0002C01709365001D7F116008954DDB8091C8
:1010B00084008F7D809384008FEF80939400089547
:1010C00000240FBEEFE5F4E0FEBFEDBF0292E03674
:1010D000F00509F4EEE1E015F005C1F781B7809362
:1010E0006000A4B6F4BF81E088BB81E087BBF5BB9C
:1010F00088E084BB8AE282BB8AEB81BB82E083BF4B
:1011000081E08EBDF5BD88E181BD88E081BDCCD890
:10111000EED8D8D840DB7894A0FAAF1226F489D85C
:1011200091D899D81EC0A2FE04C095D882D8006874
:1011300018C0A1FE02C096D814C0F894A3FE05C042
:1011400078D877D888D887D8FBCFABD84A2D58E045
:1011500040FF78D840FD86D8A5D846955A95C1F766
:10116000F4CF1EDBB998BA980D7FA1D984E588BF6A
:1011700089BF11DB83E085BF80E48BBFBB24137E76
:10118000F0936600F0936700A89514FD0AC0E7DAB3
:10119000809167008837C1F78CE3809367005BD844
:1011A000F3CFDDD8C0917900D0917A00209631F745
:1011B0008AE0B81648F312FFF6BF812F8C7009F051
:1011C000FBBF50D84FD84ED80B7FBEDA48DB0D7F1F
:1011D000B99ABA98F0936600F0936700A89514FD49
:1011E0000DC089DBBB20D1F7BADA809167008E3160
:1011F000A9F7AADA59D82FD825D8B3CF04FD71D8CA
:1012000005FD75D807D9BB2049F3209611F435DBCD
:10121000E1CF19DB99DA80B7886080BF3798BA9838
:10122000B998CEE8D0E06E010260FDD0F093750071
:10123000F0937600F093770082E0B82E86E08093FA
:1012400062008CE08093610081E085BD17FD46C09F
:10125000EED087E087B9C09A10FD9598E6D080E07F
:1012600087B9F894287F226062B3939A72B385B3EA
:10127000AB9895B38913979A6713C0987894D7D091
:1012800086E087B9959A10FD9398CFD087E087B90B
:10129000F894287F216068B3C09A78B382B3979896
:1012A00092B38913949A671395987894C0D080E08C
:1012B00087B9939A10FDC098B8D086E087B9F894A2
:1012C000287F246062B3959A72B382B3949892B3E4
:1012D0008913AB9A67139398789445C0A6D080E0A1
:1012E00087B9F894287F216062B3939A72B385B36B
:1012F000AB9895B38913949A67139598789497D07F
:1013000087E087B9C09A10FD93988FD086E087B99F
:10131000F894287F226062B3959A72B382B394984E
:1013200092B38913979A6713C098789480D080E01D
:1013300087B9939A10FD959878D087E087B9F8948B
:10134000287F246068B3C09A78B382B3979892B329
:101350008913AB9A67139398789469D086E087B91C
:10136000959A10FDC09880916100803010FF71F156
:10137000E601209661F18C30C8F48395809361007A
:10138000629686ED90E060917700709176007C5FC8
:101390007093760021F4605FD9F06093770060313C
:1013A00070F0703360F083E290E009C01F7BF0932F
:1013B0007700F0937600BA986B9687E593E0C817AC
:1013C000D90710F06C0142CF6E0140CFFECE21CF85
:1013D000BBD90D7F66D765D745D71CD82096D1F7E6
:1013E000C0CEEAE320FD959A21FDC09A22FD939A92
:1013F00094989798AB98BA9A81E0809362005EC007
:1014000016FD09C0BC3030F0BBE0AB1708F4AB2FC1
:1014100058D947C0BA9AF093610070917500715F16
:1014200016FD70937500106449C01F7D01C01062E5
:1014300080916200815050F08093620016FF19C0C5
:10144000C0E0DFEFAF2E6CD9A3E02AC0EA3311F47D
:10145000ECE3BA9816FD3EC07BE142D970D979E53C
:101460003FD900FFBECF14FDD5D768B1612765FD18
:10147000F8CFA0917000B0917100B695A795B69580
:10148000A795A330BF0750F051F0AA31BF0708F06D
:10149000AAE1AC3020F073E323D902C0A3E011D954
:1014A000BA2F00FFADCF14FDB5D768B1612765FD38
:1014B00003C0AB17AF1FF5CFAA9599F71AD816FF3F
:1014C0003ED9809162008F131E7FBF1208958F91C5
:1014D0008F917BCEC0E0D0E070E0A72E80916100BC
:1014E000823030F47091750080E090E860E0AAD816
:1014F00017D925D9C0E0D8EB7BE0A72E11D9AFEFE3
:04150000CFCFDECD9E
:101C0000E4E0FFE5FEBFEDBF00E0ECEBFEE0C0E886
:101C1000D0E0A0E6B0E042E045BD5CEE539571F047
:101C200040EC04BD48BFA03619F0E8B6E6FC46C05B
:101C30008299F9CF04BD48BFE8B6E6FCE1C1829BBA
:101C4000FBCF04BD48BFE8B6E6FCE8CF8299FBCFE6
:101C500034B404BD48BFE8B6E6FCD2C1829BFBCFDA
:101C600024B4022C030C802C07940694402C069478
:101C70008008809420943094409460EE83E084BC8B
:101C800048BFE8B6E6FCBCC1829BFBCF84BC48BF22
:101C9000E8B6E6FCC3CF8299FBCF0894E8B6E6FC31
:101CA00023C0829BFBCFE8B6E6FCB8CF8299FBCF7E
:101CB0008894E8B6829BE6FC17C0FBCF43BC87E163
:101CC000929A8A9A34BC48BFE8B6E6FEFDCF929855
:101CD00024BC48BFE8B6E6FEFDCF8A9589F7C0E68A
:101CE000D0E060E081E00BC0679548F6815068F570
:101CF0005CEE0994CA17DB07D1F0699188E066951C
:101D0000929A34BC48BFE8B610F0E7FC02BBE6FE8E
:101D1000FACF929808F0929A24BC48BFE8B610F027
:101D2000E7FC02BBE6FEFACF8A9549F7E3CF929A29
:101D300034BC48BFC0E8D0E0A0E6B0E0E8B6E7FEBB
:101D4000FDCF8A9802BB6ACF80E060E898CFECEBC9
:101D5000FEE0C0E8D0E0F8CF009000000090000066
:101D60000090000000900000009000000090000033
:101D70000090000000900000000000006B3121F78F
:101D8000562E3796E1CF962E56263496DDCF762EF8
:101D900056263496D9CF662E56263496D5CF6E3039
:101DA000B1F656263596D0CF69935626CF3584E0C6
:101DB000D80768F681E0681A700A09F43C96C4CF27
:101DC0006511C5CFC0E8D0E0699199918991FD0175
:101DD0007BE170839182028372E073837EE074837F
:101DE0006583068317966130A1F48BE0838388E0D6
:101DF0008D93EF01ECEDFFE185918D93E43EE1F7EA
:101E0000FE01819161918627EA17FB07D9F78D932F
:101E10009ECF6D3151F5792F90E0039683839283A5
:101E200003970D938A95E9F789916991603380074B
:101E300094E0790779F460878991803059F4699149
:101E400060308EE131F0613083E919F0623087E073
:101E500009F482870D93D5CF8017900709F5D990A3
:101E6000C9905601AA0CBB1CCCCF6330E1F06230A4
:101E700041F2603131F2613121F2663069F3623151
:101E8000F1F1833F73E0970758F4643109F166314B
:101E900069F127966531C1F16331F9F10000000065
:101EA00080EC8683AECF90398FE071F0913982E07B
:101EB00059F092398AE041F0943982E329F0903860
:101EC00080E011F0913861F78D9383E0838399CF9F
:101ED00049D0EF01F5018FD076FDFDCF65916D936F
:101EE0000197E1F75F01FE010D938BCF3BD011E02D
:101EF0003ED06DB36D930197D9F70D9382CF47D044
:101F0000000080E092E0689416E06FEF0EF06991B7
:101F10002ED00197D1F7E89474CF8F7F61E07F01D5
:101F2000F5010990199068D032960297D1F70F0108
:101F3000F501500163E0E03C7FE1F70719F058D06C
:101F4000F7015FCF0BD065E009D061E107D0F8CF92
:101F500077B770FDFDCFE199FECF0895F9DF67BF38
:101F6000E8950895039692838383039708953AD062
:101F7000DFBACEBA0894C01ED01E762FE09A6DB399
:101F8000671312FF08957DBBE29A1CBB08957F0181
:101F9000E0E0FCE163E0E054F0402ED0E1F76F01B7
:101FA000F70108950000000000000000000000009C
:101FB0000000000000000000000000000000000021
:101FC000687474703A2F2F6769746875622E636F36
:101FD0006D2F73696D2D2F7467792F00415652490B
:101FE00053505F3277B770FDFDCFE199FECF089572
:101FF00003D065E001D061E1F5DF67BFE8950895A2
:00000001FF
