:020000020000FC
:10000000B2CCC8C0189518950994C4C08BC0189577
:1000100093C0189518954BC1189518951895189573
:100020001895D8C01895697A40744042405B029098
:10003000FFFF7F0000B9FFFFFFFFFFFFFFFFFFFF94
:100040009FB68A9409F4EAE29FBE18959FB68A94F7
:100050009FBE189520FD959A21FDC09A22FD939A86
:1000600020FD949A21FD979A22FDAB9AEAE7832C12
:1000700024BC18958F12EACFA8959FB640919B009B
:100080004395443120F0442751E050939C00409325
:100090009B0040919F0050919E00450F28F04F3FDC
:1000A00039F040939F0011C0439540939F0002C0D8
:1000B000F0939F009FBE20FD949A21FD979A22FD08
:1000C000AB9AECE6832C24BC18959FBEEAE343E090
:1000D000842E4FED44BD18958F12B8CFEAE3852CDE
:1000E00020FD949821FD979822FDAB9844BC18956B
:1000F000A89518958F12AACFA89511FDABCFE091C6
:100100006500852C20FD949821FD979822FDAB98E1
:1001100044BC27FD189520FD959821FDC09822FD2F
:10012000939818959FB640916300415008F40E7F54
:10013000409363009FBE18959FB64091640043951D
:10014000409364005091840051FF0BC05091850092
:1001500053955093850029F4509186005395509300
:1001600086005091840052FF03C050615093840078
:100170004F7019F4BB2019F0BA949FBE18954091A6
:100180006600439540936600409167004395409315
:100190006700F3CF4CB55DB5829B0DC09FB65A5634
:1001A00059BD48BD42E045BF48E048BF9FBE1895D5
:1001B0009FB604600BC098B693FCFACF9FB63A0185
:1001C00048B559B55659641A750A106143E045BFE0
:1001D0009FBE18959FB641B1403669F14038B1F1E4
:1001E000403A69F1483A41F0483B79F0483F11F014
:1001F0004F1321C045ED20C067FC0DC0F3B94AEF95
:1002000010FD4FEF4093810016C067FC07C040917E
:10021000810043B9F6CF44EC409383005E2FE09118
:1002200083004191E093830043B9EC3CE52F09F052
:1002300002C045E801C045EC46BF9FBE18954091FD
:1002400082004F131461F0938200F5CF4091820039
:10025000439540938200413019F473B06F2EEBCF79
:10026000423011F463B0E7CF433021F443B1423060
:1002700001F7E1CF4A3061F05E2FE1ECE40F43B1CA
:100280004083E52F5091CB00540F5093CB00D3CF38
:1002900043B15091C50056FD006157FD0062451BFA
:1002A00050E9450F5093C5004093CB00C4CF90E573
:1002B00078ECBA9AC098949A1ED0E1F7BA9808954B
:1002C00094E674EBB99A9398979A15D0E1F7B99898
:1002D000089598E770EA9598AB9A0DD0E1F70895E4
:1002E0009CE87CE8BA9AB99A9398949A04D0E1F77A
:1002F000B998BA980895F2BF82B78032E8F3959A18
:10030000C09A939A94989798AB9860E1F2BFA89599
:1003100082B78717E8F36A95C9F79A95089500D0D0
:1003200000D000D09FE060E1F2BF81E088BFA895D7
:1003300088B780FFFDCF6A95B9F79A95A1F7089520
:100340008091BC009091BD0089569A4739F0CCEB62
:10035000D0E0E6E285918993C73DE1F70895F894EE
:10036000EF93F5DFEF91789408958091600081BF5D
:100370000F7DCCEBD0E080E890E0A895E199FDCF2F
:1003800067B760FDFACFC73D81F09FBB8EBB01967A
:10039000E09A6DB317F06993F0CF79917DBBF89433
:1003A000E29A6713E19A7894E8CFBCDF8FEF81BFC0
:1003B0000895000C111CAA1C8A95D9F70895869FF0
:1003C000A12C969FA00CC11DDF1F879FA00CC11DF3
:1003D000DF1F979FC00DD11D089512FD8EC01F7E97
:1003E000C3019053660B602763FD9DC007FD52C09B
:1003F000CEEBD0E001C093DF42D0BC01A895FF9FB7
:10040000AA24CE3B31F49FE160348BE5780798F461
:1004100041C08091BE0068178091BF00780760F7E7
:1004200092E2C03C41F08091C00068178091C10009
:10043000780710F390E2892EA89514FFFDCF1F7E58
:100440001ED0080E191EAF1E861B970B80569F4F9D
:100450008154914080F68A9479F783E0AADF19925B
:10046000A992C23C09F417D234DFC03CC1F25ADF72
:1004700030DFC23C11F056DF2CDF77DF56C0C301FE
:1004800003FF0895A3E0880F991FAA95E1F7089547
:1004900012FD33C01F76C301903360F003FD11C01D
:1004A000C0917F00D09180008C1B9D0B60F4CC2705
:1004B000DD2716C0963028F0803C62E1960703FDE8
:1004C00078F30460089560917B0070917C00C8E32C
:1004D000D0E075DFC73583E0D80710F0C7E5D3E07B
:1004E000C0937900D0937A0001FF03C082E0B82E58
:1004F000B4C08CE0B816BF1E0895E3011F7E809142
:10050000CA0080FB17F9CC0FC295209649F3CE01A3
:100510006DE373E0DCCFC3E076956795969587959C
:10052000CA95D1F7089588E008278091C00090917E
:10053000C1006091BE007091BF0003FDECDF8093AD
:100540007F0090938000681B790B05D080937B001F
:1005500090937C00089585E595E00196A8959F3FCE
:10056000890721F0C0EEDCEF2ADFB9F70895F8948F
:100570008CB59DB56091640078B77894903872FD21
:100580006F1FC0916900D0916A00A0906B008093AA
:10059000690090936A0060936B0000906C0010906B
:1005A0006D0070916E00C0936C00D0936D00A092AE
:1005B0006E0080199109670B94306F0728F480E072
:1005C00094E060E0D694C79490386F07A7E5B3E055
:1005D000F0F0A1E0B1E27D01A0E8BBEAFF9F771B4C
:1005E0000AC0771F001C111C78170906160618F0A0
:1005F000781B090A160AAA1FBB1FEE1CFA9489F77A
:10060000A095B095A63DBF0710F4A6EDB0E07D0122
:1006100080936F009093700060937100669597953A
:100620008795C0916900D0916A00A0906B0073E338
:1006300047D0C0937200D0937300A09274009031A1
:100640006F0718F02F7B5FD002C0206497D014FD95
:100650001FCFC0917900D0917A00CE15DF0508F048
:10066000E701CC15DD0508F0E60187E593E08C1B7A
:100670009D0B01F1209601F11D7F116016FF04C052
:10068000880F991FCC0FDD1F689470E39F1370E2F1
:1006900080319F0728F0E89407977AE29F1370E271
:1006A000C09580951E01F8942C017093650027F980
:1006B000789408951360E8CF1C7F7AE76894F0CFB0
:1006C000879FC10DDF1FAF1E979FC00DD11DAF1EAD
:1006D000679FD00DA11C089580916F0090917000CC
:1006E00060917100C0917200D0917300A09074006D
:1006F0000895F2DFC80FD91FA61EC80FD91FA61E66
:1007000002C0EADFDDDF79B7072E7B7E79BF70E1BB
:10071000F894DBBDCABD78BF8CB59DB578940160F7
:100720006091640078B7903872FD6F1FC81BD90BB9
:10073000A60AA09263000AF40E7F09BE089526FF60
:10074000D8CF80916F0090917000C0917200D091CD
:100750007300C80FD91FC80FD91F10C026FFD1CFF3
:1007600080916F0090917000C0917200D0917300E1
:10077000879FC10DDF1F979FC00DD11D70E1F894B9
:10078000DBBDCABD78BF8CB59DB50160F093630039
:100790007894C81BD90B0AF40E7F0895279670E150
:1007A000F8948CB59DB5C80FD91FDBBDCABD78BF05
:1007B000A092630001607894089514FD69DE00FD45
:1007C000FCCF0895F5BD80E488BFE8E7959AC09A0C
:1007D000939A94989798AB980895829BF0936600AB
:1007E0008091660085FF0895E0E0F894FCE1859132
:1007F0009491F0E0789401960297A8F3F894F7BBEF
:10080000F4BBF1BB88E181BDF1BD8091600081BF87
:10081000F7C982E582B985EC86BF0895F09384001C
:10082000F0938500F09386006AD32F7D8FEF80933D
:100830009D00F6BF08958091CE00853A31F48091F5
:10084000CD00803110F48894089508940895809123
:10085000D6008036F1F48091D0008031D0F48091C0
:10086000D1008730B1F48091D200823090F4809131
:10087000D3009091D400883360E0960750F0813423
:1008800060E0960730F48091D500882311F08894B9
:100890000895089408958FEF8093D6005AD560F09C
:1008A0008091890090918A008093CC009093CD0034
:1008B00085EA8093CE0007C08FEF8093CC008093B1
:1008C000CD008093CE00A5DF089581E08093840061
:1008D000F0938500F093860012D32F7D8FEF8093E5
:1008E0009D00F6BF08958091840080FF0895817077
:1008F000826080938400F0938500F0938600F6BFB9
:10090000A6DF18F08DED92E002C08DED92E08093AD
:1009100087009093880008958091840081FF089556
:1009200082FD0895809185009091860060918700F6
:10093000709188008617970780F10BD578F17BDFDF
:10094000B8F185DF08F4F5C2DAD2809184008F71A6
:100950008C61809384008091890090918A008093BB
:10096000A0009093A10080938B0090938C00F09353
:100970008D00F0938E00F0938F00F093A200F0931F
:10098000A300F0939E00F0939F00F0939400F093E7
:10099000A400F093A500206226D5089580918400DC
:1009A0008170809384000EDF82DCBCDC80DC0895E3
:1009B000809184008D7F8093840004DF78DCB2DC3A
:1009C00076DCB0DC74DC08958091840082FF0895A9
:1009D00086FD08C090919C00992321F0F0939C0023
:1009E000F6D101D58091840084FF08958F7E809395
:1009F0008400AFD498F28091840088608093840052
:100A000086FD66C302D0EFD4089580918E00909148
:100A10008F008F5F9F4F80938E0090938F00823A5C
:100A200067E0960708F07AC240D060918B00709121
:100A30008C008091890090918A00681B790B7F70EF
:100A400073FD706FDB016091890070918A00809165
:100A5000A0009091A1006093A0007093A100681B7A
:100A6000790B7F7073FD706F8091840087FF89C060
:100A7000CD0197FF03C0909581959F4F8332C0E0D1
:100A80009C0708F07EC0CB0197FF03C0909581952D
:100A90009F4F992309F075C0833008F072C0F0931E
:100AA0009E00F093940012D20895A0918B00B09113
:100AB0008C006091CC007091CD006A1B7B0B7F7025
:100AC00073FD706F862F872B31F4809184008068CE
:100AD000809384000895DD2777FF04C0D395709537
:100AE00061957F4FC0918D0087ECC80FC0938D003A
:100AF00080E18F1F882301F1E894772341F4861762
:100B000030F0A091CC00B091CD00689408C0DD23F6
:100B100019F4A80FBF1F02C0A81BBF0BBF7012D0D3
:100B200058F0A0938B00B0938C0036F48091840031
:100B30008068809384000895809184008F778093EB
:100B400084000895BD018091890090918A00681BFE
:100B5000790B7F7073FF04C0706F709561957F4F44
:100B6000CC27DD2787E0882351F0C60FD71F8A9551
:100B7000E1F7C13080E1D80710F488940895089413
:100B80000895CB0160E28ED08F939F938091A20055
:100B90009091A3006A2F6B2B39F0682F692B41F0DD
:100BA000692F6B2767FF04C0F093A400F093A500A2
:100BB000A093A200B093A3008091A4009091A500FF
:100BC0008A0F9B1F97FD07C0803060E4960748F0AE
:100BD00080E090E406C0803060EC960710F480E07E
:100BE00090EC8093A4009093A500CD016CE05AD0C6
:100BF000DC018091A4009091A500C5E095958795B2
:100C0000CA95E1F762E04ED0CB2FA80FB91F6C2F29
:100C1000692767FF01C00BC06C2F6B2767FF07C0F8
:100C2000C7FF03C0AA27B0E802C0AFEFBFE79F919C
:100C30008F91CB2FA81BB90B6C2F692767FF0BC0B7
:100C40006C2F6B2767FF07C0C7FF03C0AA27B0E858
:100C500002C0AFEFBFE7BD01CC2777FF04C0C3954B
:100C6000709561957F4F862F872BA9F0772321F40C
:100C7000862F8F3F10F009F08FEF80939A0061E08C
:100C8000CC2309F061958091D200882309F0619509
:100C9000609394003BC0F0939A00F0939E00F09311
:100CA000940034C0762F7F7062956F7097FF04C0F8
:100CB000909581959F4F7068EC018827992777FF61
:100CC00006C0703851F08C0F9D1F7A95FACF7723AC
:100CD00021F08C0F9D1F7A95FACF96958795969562
:100CE00087959695879596958795662349F08C0FFD
:100CF0009D1F97FF03C08FEF9FE702C06A95F5CF56
:100D000077FF03C0909581959F4F0895609189006A
:100D100070918A0088279927C7E0CC23B9F0860F05
:100D2000971FCA95E1F79F70C091D200CC2331F094
:100D300066277727681B790BCB019F706091CF00E6
:100D40007091D000860F971F9F7004C08827992745
:100D5000F0939400809390009093910060919400A0
:100D6000662339F01AF080509C4F02C080509440A6
:100D70009F70809392009093930001D0089566270E
:100D8000923040F011F48B3A28F08B5A92406395E0
:100D90006530B0F360939600DC01B695A795B695E3
:100DA000A795B695A795AA0FBB1F7FB7F894EF93A9
:100DB000E0E2FEE0EA0FFB1F85919491EF91FF279F
:100DC0007FBF809397009093980001D00895609121
:100DD0009600A09199008091970090919800A91792
:100DE00008F0A91BA80F20F0A91738F0A91B01C013
:100DF000A91B6395663008F06627A093990060935D
:100E0000950080919A00899F802D912D81589F4F48
:100E1000890F10F08F3F09F4939590939E000895E9
:100E200000DD03DE06E009E10DE310E413E616E75A
:100E300019E81CEA1FEB22EC25ED28EE2CEF2FF031
:100E400032F135F238F33BF43EF541F644F747F81A
:100E50004AF84DF950FA53FA56FB59FB5CFC5EFC1C
:100E600062FD64FD67FE6AFE6DFE70FE73FF76FF35
:100E700078FF7BFF7EFF80FF83FF86FF88FF8BFF6D
:100E80008DFE90FE93FE96FE98FD9AFD9DFD9FFCC3
:100E9000A2FCA4FBA7FBA9FAABF9AEF9B0F8B2F734
:100EA000B4F6B7F6B9F5BBF4BDF3BFF2C1F1C3F0C8
:100EB000C5EFC7EEC9ECCBEBCDEACFE9D0E7D2E680
:100EC000D4E5D5E3D7E2D9E0DBDFDCDDF0939E00AB
:100ED000F093940077DC13D02F7DF093A200F09371
:100EE000A300F093A400F093A5008091840081708A
:100EF000809384008FEF80939D00F6BF0895F09358
:100F00009600F0939700F0939800F0939900F09377
:100F10009A00F0939B00F0939C000895D7DFC7D907
:100F200001DAC5D9FFD9C3D9FDD9C1D9FBD9BFD9F8
:100F3000089520628DE480939E00F0939F0080933B
:100F4000D50088E390E08093D3009093D400809103
:100F500084008F7D8C658093840081E08093A6005F
:100F6000F093AC00F093AD00F093B400F093B500B3
:100F700008D001D008958091AC0090E860E04DD297
:100F80000895F093A700F093A800F093A900809132
:100F9000890090918A008093AE009093AF00809377
:100FA000AA009093AB0008956091890070918A0027
:100FB0008091AE009091AF006093AE007093AF004F
:100FC000681B790B7F7073FD706F089560918900C5
:100FD00070918A008091B0009091B1006093B00050
:100FE0007093B100681B790B7F7073FD706F08956B
:100FF000EDDF8091B4009091B500860F971F80932C
:10100000B4009093B5000895E894CB0197FF03C016
:10101000909581959F4F9923F9F48430E8F460917D
:10102000890070918A008091AA009091AB00681BA2
:10103000790B7F7073FF04C0706F709561957F4F5F
:10104000772351F4673040F48091A9008395809311
:10105000A9008034E0F40AC0F093A90080918900CF
:1010600090918A008093AA009093AB008091A70092
:101070009091A8008F5F9F4F8093A7009093A80046
:101080008D3D62E0960708F068948894089508946E
:1010900008958091AC008395863008F0882780936E
:1010A000AC0008958091AC00882309F486E08A950D
:1010B0008093AC00089577FF03C0709561957F4FD2
:1010C000613084E0780710F48894089508940895B6
:1010D0008091A600813009F40AC0823009F415C05D
:1010E000833009F43AC0843009F45FC017C15CDF73
:1010F0008BDF0EF40DC108F00895F093AD00C9DF49
:1011000082E08093A6003DDF36CF4EDF7DDF0EF418
:10111000FFC008F008958091AD0083958093AD00E5
:10112000863018F4B6DF2DDF26CFF093B400F093AD
:10113000B5008091890090918A008093B2009093CD
:10114000B3008093B0009093B100F093AD00A1DFA5
:1011500083E08093A60015DF0ECF26DF55DF0EF467
:10116000D7C008F0089544DFA6DF08F4D3C080910B
:10117000AD0083958093AD008C3018F48ADF01DFD9
:10118000FACE8091B4009091B5008093B600909310
:10119000B700F093B400F093B500F093AD0082DF98
:1011A00084E08093A600EDDEE6CEFEDE2DDF0EF4B9
:1011B000AFC008F008951CDF7EDF08F4ABC080915B
:1011C000AD0083958093AD008C3018F46BDFD9DED1
:1011D000D2CE6091890070918A008091B200909186
:1011E000B300681B790B7F7073FF04C0706F70953C
:1011F00061957F4F772309F08FC0613208F08CC072
:101200006091B4007091B5007595679580918900E3
:1012100090918A00861B970B9F708093B0009093EB
:10122000B1006091B6007091B700CC2777FF04C081
:10123000C395709561957F4FC093D2006093B600BF
:101240007093B7008091B4009091B500CC2331F435
:1012500097FF62C0909581959F4F02C097FD5CC03B
:101260008093B4009093B5006817790718F4861B33
:10127000970B04C0DB01A81BB90BCD01992309F022
:101280004BC0813208F048C06091B6007091B70041
:101290008091B4009091B500860F971F9695879521
:1012A0008093B6009093B7006091B6007091B7003C
:1012B000683681E0780708F42FC0C7E0C093D100FA
:1012C0006091B0007091B100AA27BB27C7E0A60FBC
:1012D000B71FCA95E1F7BF708091D200882331F41F
:1012E000882799278A1B9B0BDC01BF70A093CF0036
:1012F000B093D00067DA809184008F798093840066
:1013000080E68093D60031D824D008F447CB1CCB9C
:10131000A4E005C0A6E003C0A7E001C0A9E02F7DBE
:10132000809184008170809384004CDACA2FBFD7EB
:10133000CA9511F0F7D7FBCF089586BF9FEFA89508
:1013400086B787FD04C09A95D1F7089408958894CC
:101350000895F6BFF1B98CE080B984EAEEDFF8F1C8
:1013600081B1887F8830D9F58CE683B984E8E5DFE0
:10137000B0F181B1887F883191F58EE083B984E83E
:10138000DCDF68F181B1887F883249F584EAD5DFF6
:1013900030F181B1887F803111F58DE683B984E821
:1013A000CCDFE8F081B1887F8034C9F484ECC5DFFC
:1013B000B0F081B1887F803591F483B18F708093D4
:1013C0008A0084E8BADF58F081B1887F883539F423
:1013D00083B18093890084E986BF8894089584E965
:1013E00086BF0894089580919400882341F08091ED
:1013F00095009091D3006091D4000FC00895809122
:10140000840085FF0895DED9809184008F7D8093CC
:1014100084008FEF80939D000895863008F078C097
:101420007091840076FF0AC0903770E0670708F477
:101430006FC0913870E0670758F06AC0983370E069
:10144000670708F465C0913470E0670708F060C072
:10145000A82FC92FD62F8091840085FF0CC08091C2
:101460009D008A1741F47FB7F8947F933DD02068A0
:101470007F917FBF08957FB7F8947F93A3D98BE1C5
:101480008A95F1F7287F2068A23030F0A43010F060
:10149000246003C0216001C02260A13051F0A2305D
:1014A00041F0A33021F0A43011F0959803C0C0980A
:1014B00001C093988BE18A95F1F7A0939D008091EC
:1014C00084008062809384000FD025FD02C0EAE290
:1014D00001C0EAE38F2E8FEF84BD80E488BF81E0F6
:1014E00085BD7F917FBF089580E293E08C1B9D0BAB
:1014F00025FD04C07AE29F1370E201C07AE3C09533
:1015000080951E012C01709365001D7F1160089568
:1015100059D9809184008F7D809384008FEF8093D0
:101520009D00089500240FBEEFE5F4E0FEBFEDBF7F
:101530000292E036F00509F4EEE1E015F005C1F79E
:1015400081B780936000A4B6F4BF81E088BB81E0DE
:1015500087BBF5BB88E084BB8AE282BB8AEB81BB98
:1015600082E083BF81E08EBDF5BD88E181BD88E06A
:1015700081BDD8D6FAD6E4D64CD97894A0FAAF1269
:1015800026F495D69DD6A5D61EC0A2FE04C0A1D62F
:101590008ED6006818C0A1FE02C0A2D614C0F8946E
:1015A000A3FE05C084D683D694D693D6FBCFB7D6F8
:1015B0004A2D58E040FF84D640FD92D6B1D64695DC
:1015C0005A95C1F7F4CF2AD9B998BA980D7FADD7FB
:1015D00084E588BF89BF1DD983E085BF80E48BBFC8
:1015E000BB24137EF0936600F0936700A89514FD6A
:1015F0000AC0F3D8809167008837C1F78CE38093E5
:10160000670067D6F3CFE9D6C0917900D0917A0010
:10161000209631F78AE0B81648F312FFF6BF812F03
:101620008C7009F0FBBF5CD65BD65AD60B7FCAD84C
:101630005AD90D7FB99ABA98F0936600F093670073
:10164000A89514FD0DC0C0D9BB20D1F7C6D8809194
:1016500067008E31A9F7B6D865D63BD631D6B3CF61
:1016600004FD7DD605FD81D613D7BB2049F3209616
:1016700011F452D9E1CF29D9A5D880B7886080BFAD
:101680003798BA98B998CEE8D0E06E010260FDD0E4
:10169000F0937500F0937600F093770082E0B82E17
:1016A00086E0809362008CE08093610081E085BDDC
:1016B00017FD46C0EED087E087B9C09A10FD959817
:1016C000E6D080E087B9F894287F226062B3939ACD
:1016D00072B385B3AB9895B38913979A6713C09883
:1016E0007894D7D086E087B9959A10FD9398CFD09B
:1016F00087E087B9F894287F216068B3C09A78B3EF
:1017000082B3979892B38913949A671395987894B3
:10171000C0D080E087B9939A10FDC098B8D086E019
:1017200087B9F894287F246062B3959A72B382B324
:10173000949892B38913AB9A67139398789445C0A1
:10174000A6D080E087B9F894287F216062B3939A8D
:1017500072B385B3AB9895B38913949A6713959830
:10176000789497D087E087B9C09A10FD93988FD06E
:1017700086E087B9F894287F226062B3959A72B3A5
:1017800082B3949892B38913979A6713C098789408
:1017900080D080E087B9939A10FD959878D087E043
:1017A00087B9F894287F246068B3C09A78B382B36D
:1017B000979892B38913AB9A67139398789469D0EA
:1017C00086E087B9959A10FDC098809161008030BD
:1017D00010FF71F1E601209661F18C30C8F4839519
:1017E00080936100629686ED90E060917700709141
:1017F00076007C5F7093760021F4605FD9F060938F
:101800007700603170F0703360F083E290E009C0DF
:101810001F7BF0937700F0937600BA986B9687E57C
:1018200093E0C817D90710F06C0142CF6E0140CF8A
:10183000FECE21CFC7D70D7F72D571D551D528D611
:101840002096D1F7C0CEE8E720FD959A21FDC09AF9
:1018500022FD939A94989798AB98BA9A81E08093D6
:1018600062005EC016FD09C0BC3030F0BBE0AB17B3
:1018700008F4AB2F64D747C0BA9AF0936100709117
:101880007500715F16FD70937500106449C01F7D6F
:1018900001C0106280916200815050F0809362001C
:1018A00016FF19C0C0E0DFEFAF2E78D7A3E02AC043
:1018B000E83711F4EAE7BA9816FD3EC07BE14ED74F
:1018C0007CD779E54BD700FFBECF14FDE1D568B1D9
:1018D000612765FDF8CFA0917000B0917100B695B9
:1018E000A795B695A795A330BF0750F051F0AA3140
:1018F000BF0708F0AAE1AC3020F073E32FD702C095
:10190000A3E01DD7BA2F00FFADCF14FDC1D568B13C
:10191000612765FD03C0AB17AF1FF5CFAA9599F7F7
:1019200026D616FF4AD7809162008F131E7FBF1202
:1019300008958F918F917BCEC0E0D0E070E0A72E0C
:1019400080916100823030F47091750080E090E801
:1019500060E0B6D623D731D7C0E0D8EB7BE0A72E26
:081960001DD7AFEFCFCFDECDA4
:101C0000E4E0FFE5FEBFEDBF00E0ECEBFEE0C0E886
:101C1000D0E0A0E6B0E042E045BD5CEE539571F047
:101C200040EC04BD48BFA03619F0E8B6E6FC46C05B
:101C30008299F9CF04BD48BFE8B6E6FCE1C1829BBA
:101C4000FBCF04BD48BFE8B6E6FCE8CF8299FBCFE6
:101C500034B404BD48BFE8B6E6FCD2C1829BFBCFDA
:101C600024B4022C030C802C07940694402C069478
:101C70008008809420943094409460EE83E084BC8B
:101C800048BFE8B6E6FCBCC1829BFBCF84BC48BF22
:101C9000E8B6E6FCC3CF8299FBCF0894E8B6E6FC31
:101CA00023C0829BFBCFE8B6E6FCB8CF8299FBCF7E
:101CB0008894E8B6829BE6FC17C0FBCF43BC87E163
:101CC000929A8A9A34BC48BFE8B6E6FEFDCF929855
:101CD00024BC48BFE8B6E6FEFDCF8A9589F7C0E68A
:101CE000D0E060E081E00BC0679548F6815068F570
:101CF0005CEE0994CA17DB07D1F0699188E066951C
:101D0000929A34BC48BFE8B610F0E7FC02BBE6FE8E
:101D1000FACF929808F0929A24BC48BFE8B610F027
:101D2000E7FC02BBE6FEFACF8A9549F7E3CF929A29
:101D300034BC48BFC0E8D0E0A0E6B0E0E8B6E7FEBB
:101D4000FDCF8A9802BB6ACF80E060E898CFECEBC9
:101D5000FEE0C0E8D0E0F8CF009000000090000066
:101D60000090000000900000009000000090000033
:101D70000090000000900000000000006B3121F78F
:101D8000562E3796E1CF962E56263496DDCF762EF8
:101D900056263496D9CF662E56263496D5CF6E3039
:101DA000B1F656263596D0CF69935626CF3584E0C6
:101DB000D80768F681E0681A700A09F43C96C4CF27
:101DC0006511C5CFC0E8D0E0699199918991FD0175
:101DD0007BE170839182028372E073837EE074837F
:101DE0006583068317966130A1F48BE0838388E0D6
:101DF0008D93EF01ECEDFFE185918D93E43EE1F7EA
:101E0000FE01819161918627EA17FB07D9F78D932F
:101E10009ECF6D3151F5792F90E0039683839283A5
:101E200003970D938A95E9F789916991603380074B
:101E300094E0790779F460878991803059F4699149
:101E400060308EE131F0613083E919F0623087E073
:101E500009F482870D93D5CF8017900709F5D990A3
:101E6000C9905601AA0CBB1CCCCF6330E1F06230A4
:101E700041F2603131F2613121F2663069F3623151
:101E8000F1F1833F73E0970758F4643109F166314B
:101E900069F127966531C1F16331F9F10000000065
:101EA00080EC8683AECF90398FE071F0913982E07B
:101EB00059F092398AE041F0943982E329F0903860
:101EC00080E011F0913861F78D9383E0838399CF9F
:101ED00049D0EF01F5018FD076FDFDCF65916D936F
:101EE0000197E1F75F01FE010D938BCF3BD011E02D
:101EF0003ED06DB36D930197D9F70D9382CF47D044
:101F0000000080E092E0689416E06FEF0EF06991B7
:101F10002ED00197D1F7E89474CF8F7F61E07F01D5
:101F2000F5010990199068D032960297D1F70F0108
:101F3000F501500163E0E03C7FE1F70719F058D06C
:101F4000F7015FCF0BD065E009D061E107D0F8CF92
:101F500077B770FDFDCFE199FECF0895F9DF67BF38
:101F6000E8950895039692838383039708953AD062
:101F7000DFBACEBA0894C01ED01E762FE09A6DB399
:101F8000671312FF08957DBBE29A1CBB08957F0181
:101F9000E0E0FCE163E0E054F0402ED0E1F76F01B7
:101FA000F70108950000000000000000000000009C
:101FB0000000000000000000000000000000000021
:101FC000687474703A2F2F6769746875622E636F36
:101FD0006D2F73696D2D2F7467792F00415652490B
:101FE00053505F3277B770FDFDCFE199FECF089572
:101FF00003D065E001D061E1F5DF67BFE8950895A2
:00000001FF
