:020000020000FC
:10000000D5CBB6C0189518950994B2C079C018958B
:1000100081C01895189539C1189518951895189597
:100020001895C6C01895697A40744042405B0290AA
:10003000FFFF7F0000B9FFFFFFFFFFFFFFFFFFFF94
:100040009FB68A9409F4EAE29FBE18959FB68A94F7
:100050009FBE189520FD959A21FDC09A22FD939A86
:1000600020FD949A21FD979A22FDAB9AE8E6832C15
:1000700024BC18958F12EACFA8959FB640919600A0
:10008000509195005F3F21F0450F4093960058F442
:100090009FBE20FD949A21FD979A22FDAB9AEAE536
:1000A000832C24BC18959FBEEAE343E0842E4FEDD9
:1000B00044BD18958F12CACFEAE3852C20FD949891
:1000C00021FD979822FDAB9844BC1895A8951895EA
:1000D0008F12BCCFA89511FDBDCFE0916500852C96
:1000E00020FD949821FD979822FDAB9844BC27FDF4
:1000F000189520FD959821FDC09822FD939818959C
:100100009FB640916300415008F40E7F4093630016
:100110009FBE18959FB6409164004395409364003C
:100120005091840051FF0BC050918500539550931E
:10013000850029F450918600539550938600509184
:10014000840052FF03C05061509384004F7019F433
:10015000BB2019F0BA949FBE189540916600439554
:100160004093660040916700439540936700F3CF4A
:100170004CB55DB5829B0DC09FB65A5659BD48BD62
:1001800042E045BF48E048BF9FBE18959FB6046057
:100190000BC098B693FCFACF9FB63A0148B559B553
:1001A0005659641A750A106143E045BF9FBE189501
:1001B0009FB641B1403669F14038B1F1403A69F13A
:1001C000483A41F0483B79F0483F11F04F1321C0C5
:1001D00045ED20C067FC0DC0F3B94AEF10FD4FEFAD
:1001E0004093810016C067FC07C04091810043B96D
:1001F000F6CF4BEB409383005E2FE091830041915B
:10020000E093830043B9E33CE52F09F002C045E8E1
:1002100001C045EC46BF9FBE1895409182004F1328
:100220001461F0938200F5CF409182004395409392
:100230008200413019F473B06F2EEBCF423011F4CD
:1002400063B0E7CF433021F443B1423001F7E1CF4F
:100250004A3061F05E2FE8EBE40F43B14083E52FB5
:100260005091C200540F5093C200D3CF43B150916C
:10027000BC0056FD006157FD0062451B50E9450F6B
:100280005093BC004093C200C4CF90E578ECBA9A7A
:10029000C098949A1ED0E1F7BA98089594E674EB4A
:1002A000B99A9398979A15D0E1F7B998089598E775
:1002B00070EA9598AB9A0DD0E1F708959CE87CE838
:1002C000BA9AB99A9398949A04D0E1F7B998BA98DF
:1002D0000895F2BF82B78032E8F3959AC09A939A54
:1002E00094989798AB9860E1F2BFA89582B787176A
:1002F000E8F36A95C9F79A95089500D000D000D028
:100300009FE060E1F2BF81E088BFA89588B780FFD9
:10031000FDCF6A95B9F79A95A1F708958091B3003A
:100320009091B40089569A4739F0C3EBD0E0E6E2E9
:1003300085918993CE3CE1F70895F894EF93F5DF2A
:10034000EF91789408958091600081BF0F7DC3EB99
:10035000D0E080E890E0A895E199FDCF67B760FD17
:10036000FACFCE3C81F09FBB8EBB0196E09A6DB375
:1003700017F06993F0CF79917DBBF894E29A6713F7
:10038000E19A7894E8CFBCDF8FEF81BF0895000C2D
:10039000111CAA1C8A95D9F70895869FA12C969FB7
:1003A000A00CC11DDF1F879FA00CC11DDF1F979FE1
:1003B000C00DD11D089512FD8EC01F7EC301905344
:1003C000660B602763FD9DC007FD52C0C5EBD0E002
:1003D00001C093DF42D0BC01A895FF9FAA24C53B72
:1003E00031F49FE160348BE5780798F441C0809147
:1003F000B50068178091B600780760F792E2C73BB6
:1004000041F08091B70068178091B800780710F329
:1004100090E2892EA89514FFFDCF1F7E1ED0080EF6
:10042000191EAF1E861B970B80569F4F815491401B
:1004300080F68A9479F783E0AADF1992A992C93BE2
:1004400009F416D234DFC73BC1F25ADF30DFC93BB3
:1004500011F056DF2CDF77DF56C0C30103FF08958C
:10046000A3E0880F991FAA95E1F7089512FD33C004
:100470001F76C301903360F003FD11C0C0917F006F
:10048000D09180008C1B9D0B60F4CC27DD2716C01B
:10049000963028F0803C62E1960703FD78F3046013
:1004A000089560917B0070917C00C8E3D0E075DF17
:1004B000C73583E0D80710F0C7E5D3E0C0937900D3
:1004C000D0937A0001FF03C082E0B82EB4C08CE064
:1004D000B816BF1E0895E3011F7E8091C10080FB06
:1004E00017F9CC0FC295209649F3CE016DE373E066
:1004F000DCCFC3E07695679596958795CA95D1F739
:10050000089588E008278091B7009091B800609125
:10051000B5007091B60003FDECDF80937F009093EF
:100520008000681B790B05D080937B0090937C0042
:10053000089585E595E00196A8959F3F890721F0EC
:10054000C0EEDCEF2ADFB9F70895F8948CB59DB5BD
:100550006091640078B77894903872FD6F1FC091F5
:100560006900D0916A00A0906B008093690090931D
:100570006A0060936B0000906C0010906D007091A9
:100580006E00C0936C00D0936D00A0926E00801935
:100590009109670B94306F0728F480E094E060E0E5
:1005A000D694C79490386F07A7E5B3E0F0F0A1E0C8
:1005B000B1E27D01A0E8BBEAFF9F771B0AC0771F6D
:1005C000001C111C78170906160618F0781B090A7A
:1005D000160AAA1FBB1FEE1CFA9489F7A095B095C6
:1005E000A63DBF0710F4A6EDB0E07D0180936F003B
:1005F0009093700060937100669597958795C09170
:100600006900D0916A00A0906B0073E347D0C0935B
:100610007200D0937300A092740090316F0718F0AD
:100620002F7B5FD002C0206497D014FD1FCFC091F4
:100630007900D0917A00CE15DF0508F0E701CC15DE
:10064000DD0508F0E60187E593E08C1B9D0B01F1C9
:10065000209601F11D7F116016FF04C0880F991FBD
:10066000CC0FDD1F689470E39F1370E280319F0709
:1006700028F0E89407977AE29F1370E2C09580957E
:100680001E01F8942C017093650027F97894089561
:100690001360E8CF1C7F78E66894F0CF879FC10D88
:1006A000DF1FAF1E979FC00DD11DAF1E679FD00DDE
:1006B000A11C089580916F0090917000609171006D
:1006C000C0917200D0917300A09074000895F2DF81
:1006D000C80FD91FA61EC80FD91FA61E02C0EADF69
:1006E000DDDF79B7072E7B7E79BF70E1F894DBBD43
:1006F000CABD78BF8CB59DB57894016060916400E7
:1007000078B7903872FD6F1FC81BD90BA60AA0924C
:1007100063000AF40E7F09BE089526FFD8CF8091AA
:100720006F0090917000C0917200D0917300C80F5B
:10073000D91FC80FD91F10C026FFD1CF80916F00DD
:1007400090917000C0917200D0917300879FC10D8D
:10075000DF1F979FC00DD11D70E1F894DBBDCABDAE
:1007600078BF8CB59DB50160F09363007894C81B89
:10077000D90B0AF40E7F0895279670E1F8948CB592
:100780009DB5C80FD91FDBBDCABD78BFA09263005D
:1007900001607894089514FD69DE00FDFCCF089592
:1007A000F5BD80E488BFE6E6959AC09A939A94983E
:1007B0009798AB980895829BF093660080916600AD
:1007C00085FF0895E0E0F894FCE185919491F0E0D4
:1007D000789401960297A8F3F894F7BBF4BBF1BBA9
:1007E00088E181BDF1BD8091600081BF09CA82E5C9
:1007F00082B985EC86BF0895F0938400F09385005C
:10080000F09386002F7D8FEF80939400F6BF0895BC
:100810008091C500853A31F48091C400803110F494
:1008200088940895089408958091CD008036F1F45D
:100830008091C7008031D0F48091C8008730B1F436
:100840008091C900823090F48091CA009091CB00D1
:10085000883360E0960750F0813460E0960730F40A
:100860008091CC00882311F088940895089408950D
:100870008FEF8093CD008ED460F0809187009091AF
:1008800088008093C3009093C40085EA8093C500DC
:1008900007C08FEF8093C3008093C4008093C5008E
:1008A000A6DF089581E080938400F0938500F093A3
:1008B00086002F7D8FEF80939400F6BF089580917E
:1008C000840080FF08958170826080938400F0939B
:1008D0008500F0938600F6BF08958091840081FF23
:1008E000089582FD08958091850090918600853C51
:1008F000944078F14FD470F18BDFB0F195DF08F4BC
:1009000039C2809184008F718C61809384008091C2
:10091000870090918800809397009093980080932F
:10092000890090938A00F0938B00F0938C00F093F1
:100930008D00F0939900F0939A00F0939500F09356
:100940009600F0939200F0939B00F0939C0020623D
:100950006BD408958091840081708093840020DF9F
:1009600094DCCEDC92DC0895809184008D7F8093AE
:10097000840016DF8ADCC4DC88DCC2DC86DC0895F7
:100980008091840082FF089584FF08958F7E809374
:10099000840000D4F8F28091840088608093840001
:1009A00086FDB7C202D040D4089580918C0090910A
:1009B0008D008F5F9F4F80938C0090938D00823AC3
:1009C00067E0960708F0CBC140D060918900709134
:1009D0008A008091870090918800681B790B7F7056
:1009E00073FD706FDB0160918700709188008091CA
:1009F0009700909198006093970070939800681BFF
:100A0000790B7F7073FD706F8091840087FF95C0B4
:100A1000CD0197FF03C0909581959F4F8332C0E031
:100A20009C0708F08AC0CB0197FF03C09095819581
:100A30009F4F992309F081C0833008F07EC0F09366
:100A40009500F093920073D10895A0918900B09120
:100A50008A0054D050F4A0918700B0918800A093F0
:100A60008900B0938A00F0938B006091C30070916D
:100A7000C4006A1B7B0B7F7073FD706F862F872B02
:100A800031F4809184008068809384000895DD278C
:100A900077FF04C0D395709561957F4FC0918B000F
:100AA00082E3C80FC0938B0084E08F1F882301F17D
:100AB000E894772341F4861730F0A091C300B091F9
:100AC000C400689408C0DD2319F4A80FBF1F02C03A
:100AD000A81BBF0BBF7012D058F0A0938900B09331
:100AE0008A0036F4809184008068809384000895A1
:100AF000809184008F77809384000895BD01809158
:100B0000870090918800681B790B7F7073FF04C089
:100B1000706F709561957F4FCC27DD2787E0882324
:100B200051F0C60FD71F8A95E1F7C13080E1D80791
:100B300010F48894089508940895809199009091F4
:100B40009A006A2F6B2B39F0682F692B41F0692FBF
:100B50006B2767FF04C0F0939B00F0939C00A09369
:100B60009900B0939A0080919B0090919C008A0F0D
:100B70009B1F97FD07C0803060E6960748F080E035
:100B800090E606C0803060EA960710F480E090EAB4
:100B900080939B0090939C00CD0168E044D0DC01E1
:100BA00080919B0090919C00C5E095958795CA9592
:100BB000E1F764E038D0CB2FA80FB91F6C2F69275D
:100BC00067FF01C00BC06C2F6B2767FF07C0C7FF13
:100BD00003C0AA27B0E802C0AFEFBFE7BD01CC2732
:100BE00077FF04C0C395709561957F4F862F872B43
:100BF000A9F0772321F4862F8F3F10F009F08FEFB3
:100C00008093950061E0CC2309F061958091C90043
:100C1000882309F061956093920039C0F0939500A4
:100C2000F093920034C0762F7F7062956F7097FFBB
:100C300004C0909581959F4F7068EC018827992793
:100C400077FF06C0703851F08C0F9D1F7A95FACF50
:100C5000772321F08C0F9D1F7A95FACF9695879573
:100C6000969587959695879596958795662349F0ED
:100C70008C0F9D1F97FF03C08FEF9FE702C06A95FF
:100C8000F5CF77FF03C0909581959F4F08956091B0
:100C900087007091880088279927C7E0CC23B9F096
:100CA000860F971FCA95E1F79F70C091C900CC23AA
:100CB00031F066277727681B790BCB019F70609115
:100CC000C6007091C700860F971F9F7004C08827C9
:100CD0009927F093920080938E0090938F006091FB
:100CE0009200662339F01AF080509C4F02C0805069
:100CF00094409F70809390009093910001D008954C
:100D00006627923040F011F48B3A28F08B5A9240CB
:100D100063956530B0F3913038F011F4863520F0EA
:100D20006395663008F06627609393000895F0930A
:100D30009500F093920034DD2F7DF0939900F093AD
:100D40009A00F0939B00F0939C0080918400817046
:100D5000809384008FEF80939400F6BF0895E7DFBF
:100D600094DACEDA92DACCDA90DACADA8EDAC8DA43
:100D70008CDA089520628DE480939500F0939600BC
:100D80008093CC0088E390E08093CA009093CB00DE
:100D9000809184008F7D8C658093840081E08093B6
:100DA0009D00F093A300F093A400F093AB00F093A8
:100DB000AC0008D001D008958091A30090E860E0D5
:100DC0004DD20895F0939E00F0939F00F093A00001
:100DD00080918700909188008093A5009093A60051
:100DE0008093A1009093A200089560918700709174
:100DF00088008091A5009091A6006093A500709353
:100E0000A600681B790B7F7073FD706F0895609169
:100E10008700709188008091A7009091A80060934E
:100E2000A7007093A800681B790B7F7073FD706F2B
:100E30000895EDDF8091AB009091AC00860F971F75
:100E40008093AB009093AC000895E894CB0197FF9A
:100E500003C0909581959F4F9923F9F48430E8F46D
:100E600060918700709188008091A1009091A2000C
:100E7000681B790B7F7073FF04C0706F709561956C
:100E80007F4F772351F4673040F48091A000839521
:100E90008093A0008034E0F40AC0F093A000809119
:100EA0008700909188008093A1009093A200809188
:100EB0009E0090919F008F5F9F4F80939E00909324
:100EC0009F008D3D62E0960708F06894889408952D
:100ED000089408958091A3008395863008F08827B0
:100EE0008093A30008958091A300882309F486E0ED
:100EF0008A958093A300089577FF03C0709561954C
:100F00007F4F613084E0780710F488940895089446
:100F1000089580919D00813009F40AC0823009F45F
:100F200015C0833009F43AC0843009F45FC017C19A
:100F30005CDF8BDF0EF40DC108F00895F093A40080
:100F4000C9DF82E080939D003DDF36CF4EDF7DDF3D
:100F50000EF4FFC008F008958091A400839580935B
:100F6000A400863018F4B6DF2DDF26CFF093AB0057
:100F7000F093AC0080918700909188008093A90045
:100F80009093AA008093A7009093A800F093A400E8
:100F9000A1DF83E080939D0015DF0ECF26DF55DFB4
:100FA0000EF4D7C008F0089544DFA6DF08F4D3C0DC
:100FB0008091A40083958093A4008C3018F48ADF7C
:100FC00001DFFACE8091AB009091AC008093AD0030
:100FD0009093AE00F093AB00F093AC00F093A400BC
:100FE00082DF84E080939D00EDDEE6CEFEDE2DDF25
:100FF0000EF4AFC008F008951CDF7EDF08F4ABC02C
:101000008091A40083958093A4008C3018F46BDF4A
:10101000D9DED2CE60918700709188008091A900BE
:101020009091AA00681B790B7F7073FF04C0706FEA
:10103000709561957F4F772309F08FC0613208F07A
:101040008CC06091AB007091AC00759567958091F4
:10105000870090918800861B970B9F708093A70054
:101060009093A8006091AD007091AE00CC2777FFFF
:1010700004C0C395709561957F4FC093C90060937C
:10108000AD007093AE008091AB009091AC00CC238A
:1010900031F497FF62C0909581959F4F02C097FDF4
:1010A0005CC08093AB009093AC006817790718F48C
:1010B000861B970B04C0DB01A81BB90BCD0199233C
:1010C00009F04BC0813208F048C06091AD007091CA
:1010D000AE008091AB009091AC00860F971F969563
:1010E00087958093AD009093AE006091AD007091B4
:1010F000AE00683681E0780708F42FC0C7E0C093DF
:10110000C8006091A7007091A800AA27BB27C7E07C
:10111000A60FB71FCA95E1F7BF708091C900882359
:1011200031F4882799278A1B9B0BDC01BF70A093A1
:10113000C600B093C70034DB809184008F79809320
:10114000840080E68093CD00FED824D008F402CC41
:10115000D8CBA4E005C0A6E003C0A7E001C0A9E089
:101160002F7D8091840081708093840019DBCA2FC9
:101170008CD8CA9511F0C4D8FBCF089586BF9FEFD5
:10118000A89586B787FD04C09A95D1F7089408956D
:1011900088940895F6BFF1B98CE080B984EAEEDF57
:1011A000F8F181B1887F8830D9F58CE683B984E87D
:1011B000E5DFB0F181B1887F883191F58EE083B9A8
:1011C00084E8DCDF68F181B1887F883249F584EA00
:1011D000D5DF30F181B1887F803111F58DE683B99B
:1011E00084E8CCDFE8F081B1887F8034C9F484ECF6
:1011F000C5DFB0F081B1887F803591F483B18F7005
:101200008093880084E8BADF58F081B1887F883500
:1012100039F483B18093870084E986BF8894089568
:1012200084E986BF0894089580919200882341F054
:10123000809193009091CA006091CB000FC00895F7
:101240008091840085FF0895ABDA809184008F7DC2
:10125000809384008FEF809394000895863008F087
:101260007AC07091840076FF0AC0903770E06707FB
:1012700008F471C0913870E0670758F06CC098337B
:1012800070E0670708F467C0913470E0670708F002
:1012900062C0A82FC92FD62F8091840085FF0CC073
:1012A000809194008A1741F47FB7F8947F933FD0E0
:1012B00020687F917FBF08957FB7F8947F9370DA9D
:1012C0008BE18A95F1F7287F2068A23030F0A430B6
:1012D00010F0246003C0216001C02260A13051F0F1
:1012E000A23041F0A33021F0A43011F0959803C052
:1012F000C09801C093988BE18A95F1F7A093940070
:101300008091840080628093840011D025FD02C00A
:10131000EAE203C0F0939600EAE38F2E8FEF84BDDC
:1013200080E488BF81E085BD7F917FBF089580E222
:1013300093E08C1B9D0B25FD04C07AE29F1370E2A5
:1013400001C07AE3C09580951E012C017093650061
:101350001D7F1160089524DA809184008F7D809331
:1013600084008FEF80939400089500240FBEEFE572
:10137000F4E0FEBFEDBF0292E036F00509F4EEE1C5
:10138000E015F005C1F781B780936000A4B6F4BF03
:1013900081E088BB81E087BBF5BB88E084BB8AE243
:1013A00082BB8AEB81BB82E083BF81E08EBDF5BD4D
:1013B00088E181BD88E081BDA3D7C5D7AFD717DA53
:1013C0007894A0FAAF1226F460D768D770D71EC001
:1013D000A2FE04C06CD759D7006818C0A1FE02C095
:1013E0006DD714C0F894A3FE05C04FD74ED75FD772
:1013F0005ED7FBCF82D74A2D58E040FF4FD740FD44
:101400005DD77CD746955A95C1F7F4CFF5D9B998F1
:10141000BA980D7F78D884E588BF89BFE8D983E082
:1014200085BF80E48BBFBB24137EF0936600F093EE
:101430006700A89514FD0AC0BED98091670088375F
:10144000C1F78CE38093670032D7F3CFB4D7C09154
:101450007900D0917A00209631F78AE0B81648F3E7
:1014600012FFF6BF812F8C7009F0FBBF27D726D75C
:1014700025D70B7F95D923DA0D7FB99ABA98F093C7
:101480006600F0936700A89514FD0DC079DABB20C3
:10149000D1F791D9809167008E31A9F781D930D7E2
:1014A00006D7FCD6B3CF04FD48D705FD4CD7DED711
:1014B000BB2049F3209611F410DAE1CFF3D970D9AB
:1014C00080B7886080BF3798BA98B998CEE8D0E0E6
:1014D0006E010260FDD0F0937500F0937600F093FA
:1014E000770082E0B82E86E0809362008CE08093E3
:1014F000610081E085BD17FD46C0EED087E087B969
:10150000C09A10FD9598E6D080E087B9F894287FBE
:10151000226062B3939A72B385B3AB9895B3891383
:10152000979A6713C0987894D7D086E087B9959A30
:1015300010FD9398CFD087E087B9F894287F216079
:1015400068B3C09A78B382B3979892B38913949A88
:10155000671395987894C0D080E087B9939A10FD6E
:10156000C098B8D086E087B9F894287F246062B329
:10157000959A72B382B3949892B38913AB9A671316
:101580009398789445C0A6D080E087B9F894287FD6
:10159000216062B3939A72B385B3AB9895B3891304
:1015A000949A67139598789497D087E087B9C09AF2
:1015B00010FD93988FD086E087B9F894287F226039
:1015C00062B3959A72B382B3949892B38913979A3F
:1015D0006713C098789480D080E087B9939A10FD03
:1015E000959878D087E087B9F894287F246068B30D
:1015F000C09A78B382B3979892B38913AB9A671362
:101600009398789469D086E087B9959A10FDC09830
:1016100080916100803010FF71F1E601209661F148
:101620008C30C8F4839580936100629686ED90E0DB
:1016300060917700709176007C5F7093760021F462
:10164000605FD9F060937700603170F0703360F0C4
:1016500083E290E009C01F7BF0937700F09376005F
:10166000BA986B9687E593E0C817D90710F06C011C
:1016700042CF6E0140CFFECE21CF92D80D7F3DD616
:101680003CD61CD6F3D62096D1F7C0CEE6E620FD98
:10169000959A21FDC09A22FD939A94989798AB98B9
:1016A000BA9A81E0809362005EC016FD09C0BC302A
:1016B00030F0BBE0AB1708F4AB2F2FD847C0BA9A75
:1016C000F093610070917500715F16FD7093750065
:1016D000106449C01F7D01C010628091620081507A
:1016E00050F08093620016FF19C0C0E0DFEFAF2E0C
:1016F00043D8A3E02AC0E63611F4E8E6BA9816FD0E
:101700003EC07BE119D847D879E516D800FFBECF97
:1017100014FDACD668B1612765FDF8CFA0917000CB
:10172000B0917100B695A795B695A795A330BF0760
:1017300050F051F0AA31BF0708F0AAE1AC3020F018
:1017400073E3FAD702C0A3E0E8D7BA2F00FFADCF0A
:1017500014FD8CD668B1612765FD03C0AB17AF1FC0
:10176000F5CFAA9599F7F1D616FF15D880916200AA
:101770008F131E7FBF1208958F918F917BCEC0E093
:10178000D0E070E0A72E80916100823030F470913B
:10179000750080E090E860E081D7EED7FCD7C0E02C
:0E17A000D8EB7BE0A72EE8D7AFEFCFCFDECDA2
:101C0000E4E0FFE5FEBFEDBF00E0ECEBFEE0C0E886
:101C1000D0E0A0E6B0E042E045BD5CEE539571F047
:101C200040EC04BD48BFA03619F0E8B6E6FC46C05B
:101C30008299F9CF04BD48BFE8B6E6FCE1C1829BBA
:101C4000FBCF04BD48BFE8B6E6FCE8CF8299FBCFE6
:101C500034B404BD48BFE8B6E6FCD2C1829BFBCFDA
:101C600024B4022C030C802C07940694402C069478
:101C70008008809420943094409460EE83E084BC8B
:101C800048BFE8B6E6FCBCC1829BFBCF84BC48BF22
:101C9000E8B6E6FCC3CF8299FBCF0894E8B6E6FC31
:101CA00023C0829BFBCFE8B6E6FCB8CF8299FBCF7E
:101CB0008894E8B6829BE6FC17C0FBCF43BC87E163
:101CC000929A8A9A34BC48BFE8B6E6FEFDCF929855
:101CD00024BC48BFE8B6E6FEFDCF8A9589F7C0E68A
:101CE000D0E060E081E00BC0679548F6815068F570
:101CF0005CEE0994CA17DB07D1F0699188E066951C
:101D0000929A34BC48BFE8B610F0E7FC02BBE6FE8E
:101D1000FACF929808F0929A24BC48BFE8B610F027
:101D2000E7FC02BBE6FEFACF8A9549F7E3CF929A29
:101D300034BC48BFC0E8D0E0A0E6B0E0E8B6E7FEBB
:101D4000FDCF8A9802BB6ACF80E060E898CFECEBC9
:101D5000FEE0C0E8D0E0F8CF009000000090000066
:101D60000090000000900000009000000090000033
:101D70000090000000900000000000006B3121F78F
:101D8000562E3796E1CF962E56263496DDCF762EF8
:101D900056263496D9CF662E56263496D5CF6E3039
:101DA000B1F656263596D0CF69935626CF3584E0C6
:101DB000D80768F681E0681A700A09F43C96C4CF27
:101DC0006511C5CFC0E8D0E0699199918991FD0175
:101DD0007BE170839182028372E073837EE074837F
:101DE0006583068317966130A1F48BE0838388E0D6
:101DF0008D93EF01ECEDFFE185918D93E43EE1F7EA
:101E0000FE01819161918627EA17FB07D9F78D932F
:101E10009ECF6D3151F5792F90E0039683839283A5
:101E200003970D938A95E9F789916991603380074B
:101E300094E0790779F460878991803059F4699149
:101E400060308EE131F0613083E919F0623087E073
:101E500009F482870D93D5CF8017900709F5D990A3
:101E6000C9905601AA0CBB1CCCCF6330E1F06230A4
:101E700041F2603131F2613121F2663069F3623151
:101E8000F1F1833F73E0970758F4643109F166314B
:101E900069F127966531C1F16331F9F10000000065
:101EA00080EC8683AECF90398FE071F0913982E07B
:101EB00059F092398AE041F0943982E329F0903860
:101EC00080E011F0913861F78D9383E0838399CF9F
:101ED00049D0EF01F5018FD076FDFDCF65916D936F
:101EE0000197E1F75F01FE010D938BCF3BD011E02D
:101EF0003ED06DB36D930197D9F70D9382CF47D044
:101F0000000080E092E0689416E06FEF0EF06991B7
:101F10002ED00197D1F7E89474CF8F7F61E07F01D5
:101F2000F5010990199068D032960297D1F70F0108
:101F3000F501500163E0E03C7FE1F70719F058D06C
:101F4000F7015FCF0BD065E009D061E107D0F8CF92
:101F500077B770FDFDCFE199FECF0895F9DF67BF38
:101F6000E8950895039692838383039708953AD062
:101F7000DFBACEBA0894C01ED01E762FE09A6DB399
:101F8000671312FF08957DBBE29A1CBB08957F0181
:101F9000E0E0FCE163E0E054F0402ED0E1F76F01B7
:101FA000F70108950000000000000000000000009C
:101FB0000000000000000000000000000000000021
:101FC000687474703A2F2F6769746875622E636F36
:101FD0006D2F73696D2D2F7467792F00415652490B
:101FE00053505F3277B770FDFDCFE199FECF089572
:101FF00003D065E001D061E1F5DF67BFE8950895A2
:00000001FF
