:020000020000FC
:1000000018CDB6C0189518950994B2C079C0189546
:1000100081C01895189539C1189518951895189597
:100020001895C6C01895697A40744042405B0290AA
:10003000FFFF7F0000B9FFFFFFFFFFFFFFFFFFFF94
:100040009FB68A9409F4EAE29FBE18959FB68A94F7
:100050009FBE189520FD959A21FDC09A22FD939A86
:1000600020FD949A21FD979A22FDAB9AE8E6832C15
:1000700024BC18958F12EACFA8959FB6409198009E
:10008000509197005F3F21F0450F4093980058F43E
:100090009FBE20FD949A21FD979A22FDAB9AEAE536
:1000A000832C24BC18959FBEEAE343E0842E4FEDD9
:1000B00044BD18958F12CACFEAE3852C20FD949891
:1000C00021FD979822FDAB9844BC1895A8951895EA
:1000D0008F12BCCFA89511FDBDCFE0916500852C96
:1000E00020FD949821FD979822FDAB9844BC27FDF4
:1000F000189520FD959821FDC09822FD939818959C
:100100009FB640916300415008F40E7F4093630016
:100110009FBE18959FB6409164004395409364003C
:100120005091840051FF0BC050918500539550931E
:10013000850029F450918600539550938600509184
:10014000840052FF03C05061509384004F7019F433
:10015000BB2019F0BA949FBE189540916600439554
:100160004093660040916700439540936700F3CF4A
:100170004CB55DB5829B0DC09FB65A5659BD48BD62
:1001800042E045BF48E048BF9FBE18959FB6046057
:100190000BC098B693FCFACF9FB63A0148B559B553
:1001A0005659641A750A106143E045BF9FBE189501
:1001B0009FB641B1403669F14038B1F1403A69F13A
:1001C000483A41F0483B79F0483F11F04F1321C0C5
:1001D00045ED20C067FC0DC0F3B94AEF10FD4FEFAD
:1001E0004093810016C067FC07C04091810043B96D
:1001F000F6CF40EC409383005E2FE0918300419165
:10020000E093830043B9E83CE52F09F002C045E8DC
:1002100001C045EC46BF9FBE1895409182004F1328
:100220001461F0938200F5CF409182004395409392
:100230008200413019F473B06F2EEBCF423011F4CD
:1002400063B0E7CF433021F443B1423001F7E1CF4F
:100250004A3061F05E2FEDEBE40F43B14083E52FB0
:100260005091C700540F5093C700D3CF43B1509162
:10027000C10056FD006157FD0062451B50E9450F66
:100280005093C1004093C700C4CF90E578ECBA9A70
:10029000C098949A1ED0E1F7BA98089594E674EB4A
:1002A000B99A9398979A15D0E1F7B998089598E775
:1002B00070EA9598AB9A0DD0E1F708959CE87CE838
:1002C000BA9AB99A9398949A04D0E1F7B998BA98DF
:1002D0000895F2BF82B78032E8F3959AC09A939A54
:1002E00094989798AB9860E1F2BFA89582B787176A
:1002F000E8F36A95C9F79A95089500D000D000D028
:100300009FE060E1F2BF81E088BFA89588B780FFD9
:10031000FDCF6A95B9F79A95A1F708958091B80035
:100320009091B90089569A4739F0C8EBD0E0E6E2DF
:1003300085918993C33DE1F70895F894EF93F5DF34
:10034000EF91789408958091600081BF0F7DC8EB94
:10035000D0E080E890E0A895E199FDCF67B760FD17
:10036000FACFC33D81F09FBB8EBB0196E09A6DB37F
:1003700017F06993F0CF79917DBBF894E29A6713F7
:10038000E19A7894E8CFBCDF8FEF81BF0895000C2D
:10039000111CAA1C8A95D9F70895869FA12C969FB7
:1003A000A00CC11DDF1F879FA00CC11DDF1F979FE1
:1003B000C00DD11D089512FD8EC01F7EC301905344
:1003C000660B602763FD9DC007FD52C0CAEBD0E0FD
:1003D00001C093DF42D0BC01A895FF9FAA24CA3B6D
:1003E00031F49FE160348BE5780798F441C0809147
:1003F000BA0068178091BB00780760F792E2CC3BA7
:1004000041F08091BC0068178091BD00780710F31F
:1004100090E2892EA89514FFFDCF1F7E1ED0080EF6
:10042000191EAF1E861B970B80569F4F815491401B
:1004300080F68A9479F783E0AADF1992A992CE3BDD
:1004400009F418D234DFCC3BC1F25ADF30DFCE3BA7
:1004500011F056DF2CDF77DF56C0C30103FF08958C
:10046000A3E0880F991FAA95E1F7089512FD33C004
:100470001F76C301903360F003FD11C0C0917F006F
:10048000D09180008C1B9D0B60F4CC27DD2716C01B
:10049000963028F0803C62E1960703FD78F3046013
:1004A000089560917B0070917C00C8E3D0E075DF17
:1004B000C73583E0D80710F0C7E5D3E0C0937900D3
:1004C000D0937A0001FF03C082E0B82EB4C08CE064
:1004D000B816BF1E0895E3011F7E8091C60080FB01
:1004E00017F9CC0FC295209649F3CE016DE373E066
:1004F000DCCFC3E07695679596958795CA95D1F739
:10050000089588E008278091BC009091BD0060911B
:10051000BA007091BB0003FDECDF80937F009093E5
:100520008000681B790B05D080937B0090937C0042
:10053000089585E595E00196A8959F3F890721F0EC
:10054000C0EEDCEF2ADFB9F70895F8948CB59DB5BD
:100550006091640078B77894903872FD6F1FC091F5
:100560006900D0916A00A0906B008093690090931D
:100570006A0060936B0000906C0010906D007091A9
:100580006E00C0936C00D0936D00A0926E00801935
:100590009109670B94306F0728F480E094E060E0E5
:1005A000D694C79490386F07A7E5B3E0F0F0A1E0C8
:1005B000B1E27D01A0E8BBEAFF9F771B0AC0771F6D
:1005C000001C111C78170906160618F0781B090A7A
:1005D000160AAA1FBB1FEE1CFA9489F7A095B095C6
:1005E000A63DBF0710F4A6EDB0E07D0180936F003B
:1005F0009093700060937100669597958795C09170
:100600006900D0916A00A0906B0073E347D0C0935B
:100610007200D0937300A092740090316F0718F0AD
:100620002F7B5FD002C0206497D014FD1FCFC091F4
:100630007900D0917A00CE15DF0508F0E701CC15DE
:10064000DD0508F0E60187E593E08C1B9D0B01F1C9
:10065000209601F11D7F116016FF04C0880F991FBD
:10066000CC0FDD1F689470E39F1370E280319F0709
:1006700028F0E89407977AE29F1370E2C09580957E
:100680001E01F8942C017093650027F97894089561
:100690001360E8CF1C7F78E66894F0CF879FC10D88
:1006A000DF1FAF1E979FC00DD11DAF1E679FD00DDE
:1006B000A11C089580916F0090917000609171006D
:1006C000C0917200D0917300A09074000895F2DF81
:1006D000C80FD91FA61EC80FD91FA61E02C0EADF69
:1006E000DDDF79B7072E7B7E79BF70E1F894DBBD43
:1006F000CABD78BF8CB59DB57894016060916400E7
:1007000078B7903872FD6F1FC81BD90BA60AA0924C
:1007100063000AF40E7F09BE089526FFD8CF8091AA
:100720006F0090917000C0917200D0917300C80F5B
:10073000D91FC80FD91F10C026FFD1CF80916F00DD
:1007400090917000C0917200D0917300879FC10D8D
:10075000DF1F979FC00DD11D70E1F894DBBDCABDAE
:1007600078BF8CB59DB50160F09363007894C81B89
:10077000D90B0AF40E7F0895279670E1F8948CB592
:100780009DB5C80FD91FDBBDCABD78BFA09263005D
:1007900001607894089514FD69DE00FDFCCF089592
:1007A000F5BD80E488BFE6E6959AC09A939A94983E
:1007B0009798AB980895829BF093660080916600AD
:1007C00085FF0895E0E0F894FCE185919491F0E0D4
:1007D000789401960297A8F3F894F7BBF4BBF1BBA9
:1007E00088E181BDF1BD8091600081BF09CA82E5C9
:1007F00082B985EC86BF0895F0938400F09385005C
:10080000F09386002F7D8FEF80939600F6BF0895BA
:100810008091CA00853A31F48091C900803110F48A
:1008200088940895089408958091D2008D3501F53B
:100830008091CC008031E0F48091CD008823C1F01C
:100840008531B0F48091CE00823090F48091CF0059
:100850009091D000883360E0960750F0813860E0D6
:10086000960730F48091D100882311F08894089580
:10087000089408958FEF8093D200DDD560F08091C9
:100880008700909188008093C8009093C90085EA02
:100890008093CA0007C08FEF8093C8008093C9007F
:1008A0008093CA00A4DF089581E080938400F093D0
:1008B0008500F09386002F7D8FEF80939600F6BF22
:1008C00008958091840080FF0895817082608093F4
:1008D0008400F0938500F0938600F6BF0895809120
:1008E000840081FF089582FD089580918500909194
:1008F0008600853C944068F19ED560F189DFA0F1C7
:1009000093DF08F49DC2809184008F798C6180937D
:100910008400809187009091880080938A00909352
:100920008B00F0938900F0938C00F0938D008093FE
:10093000990090939A00F0939700F0939800F093A9
:100940009400F0939B00F0939C00F0939D00206234
:10095000BCD508958091840081788093840020DF45
:1009600094DCCEDC92DC0895809184008D7F8093AE
:10097000840016DF8ADCC4DC88DCC2DC86DC0895F7
:100980008091840082FF089584FF08958F7E809374
:10099000840051D5F8F280918400886080938400AF
:1009A00086FD14C302D091D5089560918A0070919C
:1009B0008B008091C8009091C900861B970B9F7097
:1009C00093FD906FEC01AA27D7FF04C0A395D095A3
:1009D000C195DF4FDD2319F4C23008F443C0CE01C6
:1009E00063E0880F991F6A95E1F7823364E0960708
:1009F00010F082E394E0AA2319F0909581959F4F1F
:100A0000EC0160918C0070918D00DE01A61BB70B8C
:100A1000B7FD09C0A03480E0B80780F079F0EB01A1
:100A2000C05CDF4F0BC0B095A195BF4FA03480E0F4
:100A3000B80720F019F0EB01C054D040C0938C00EF
:100A4000D0938D00809189008C0F809389006091F4
:100A50008A0070918B006D1F9927D7FD9FEF791F3A
:100A60007F700AC06091C8007091C900F09389003E
:100A7000F0938C00F0938D0060938A0070938B004C
:100A800060918A0070918B0080918700909188001E
:100A9000681B790B7F7073FD706F60938E0070938D
:100AA0008F00DB0160918700709188008091990030
:100AB00090919A006093990070939A00681B790B4B
:100AC0007F7073FD706FCB0197FF03C09095819588
:100AD0009F4F992311F4843018F0F0939B0007C0C6
:100AE00080919B00803118F4839580939B00CD0109
:100AF00097FF03C0909581959F4F9923E9F4853026
:100B0000D8F480918A0090918B00C091C800D09158
:100B1000C9008C179D0781F4CB0197FF03C0909506
:100B200081959F4F992341F4833030F4F0939700DF
:100B3000F093940073D10895EB0180918A00909115
:100B40008B006091C8007091C9008617970729F043
:100B5000F0939C00F0939D001FC080919C009091A9
:100B60009D00692F6B2767FF02C0882799278A0F8E
:100B70009B1F97FD07C08F3F6FE1960748F08FEFEF
:100B80009FE106C0813060EE960710F481E090EEA0
:100B900080939C0090939D00CE0168E0BAD0809332
:100BA0009E0090939F00CD0168E1B3D060919E00BC
:100BB00070919F00C92F861B970B6C2F672767FFCB
:100BC0000BC06C2F692767FF07C0C7FF03C08827CA
:100BD00090E802C08FEF9FE78F939F937CD0BC017A
:100BE0009F918F91DC01CB01CB2FA80FB91F6C2FE8
:100BF000692767FF01C00BC06C2F6B2767FF07C019
:100C0000C7FF03C0AA27B0E802C0AFEFBFE78091DB
:100C10009C0090919D00C5E095958795CA95E1F758
:100C200068E077D0CB2FA80FB91F6C2F692767FF1B
:100C300001C00BC06C2F6B2767FF07C0C7FF03C045
:100C4000AA27B0E802C0AFEFBFE7BD01CC2777FF0E
:100C500004C0C395709561957F4F862F872B01F156
:100C6000772329F4862F8F3F20F019F000C08FEFF3
:100C700000C090919B00903128F09091D10089178D
:100C800008F4892F8093970061E0CC2309F06195E7
:100C90008091CE00882309F06195609394006DC027
:100CA00090919B00903190F060918E0070918F0038
:100CB000CC2777FF04C0C395709561957F4F77234C
:100CC00011F4653018F08091D100DCCFF0939700DB
:100CD000F093940052C0C0918C00D0918D00AA274F
:100CE000D7FF04C0A395D095C195DF4F88279927DA
:100CF000662770E0772329F08C0F9D1F6F1F7A9570
:100D0000F9CF892F962FAA2319F0909581959F4F9F
:100D10000895762F7F7062956F7097FF04C090954D
:100D200081959F4F7068EC018827992777FF06C04F
:100D3000703851F08C0F9D1F7A95FACF772321F0F0
:100D40008C0F9D1F7A95FACF9695879596958795E6
:100D50009695879596958795662349F08C0F9D1FEC
:100D600097FF03C08FEF9FE702C06A95F5CF77FF2B
:100D700003C0909581959F4F089560918700709171
:100D8000880088279927C091CD00CC23B9F0860F21
:100D9000971FCA95E1F79F70C091CE00CC2331F028
:100DA00066277727681B790BCB019F706091CB007A
:100DB0007091CC00860F971F9F7004C088279927D9
:100DC000F093940080939000909391006091940030
:100DD000662339F01AF080509C4F02C08050944036
:100DE0009F70809392009093930001D0089566279E
:100DF000923040F011F48B3A28F08B5A9240639570
:100E00006530B0F3913038F011F4863520F06395F9
:100E1000663008F06627609395000895C1DC2F7D49
:100E2000F0939B00F0939C00F0939D0080918400D0
:100E30008170809384008FEF80939600F6BF0895B1
:100E40002F7D809184008F7D8C658093840081E06C
:100E50008093A00088E390E08093B0009093B1006D
:100E6000F093A100F093A200F093A300F093A600EA
:100E7000F093A700F093AC00F093AD008091870051
:100E8000909188008093A8009093A9008093B2006D
:100E90009093B3008093A4009093A50001D008958F
:100EA0008091A6009091A700809392009093930068
:100EB0009EDF809195009091B0006091B1001FD3AA
:100EC000089560918700709188008091A8009091AA
:100ED000A9006093A8007093A900681B790B7F702C
:100EE00073FD706F0895C091B000D091B1008091F2
:100EF000CF009091D000C817D90711F47FEF12C02E
:100F0000AA27BB2777276627AC0FBD1FA817B907ED
:100F100018F0A81BB90B73956A95B1F78A2F8B2B24
:100F200009F073957093D1000895CBDF8091AC00E8
:100F30009091AD00860F971F8093AC009093AD0009
:100F40000895E894CB0197FF03C0909581959F4F3A
:100F50009923F9F48430E8F4609187007091880057
:100F60008091A4009091A500681B790B7F7073FF9E
:100F700004C0706F709561957F4F772351F467308F
:100F800040F48091A30083958093A3008034E0F423
:100F90000AC0F093A300809187009091880080930D
:100FA000A4009093A5008091A1009091A2008F5F72
:100FB0009F4F8093A1009093A2008D3D62E0960721
:100FC00008F0689488940895089408958091A0008A
:100FD000813009F413C0823009F42EC0833009F443
:100FE000B7C0843009F4D4C0853009F4F2C086302B
:100FF00009F413C1873009F004C246C162DFA1DFE2
:101000000EF4FFC108F00895F093A100F093A20040
:10101000F093A30080918700909188008093B200A4
:101020009093B3008BEA92E08093A6009093A70080
:1010300082E08093A00034CF609187007091880097
:101040008091B2009091B300681B790B7F7073FFA1
:1010500004C0706F709561957F4F7723B1F567304D
:10106000A0F5F093A3008091A10083958C3018F433
:101070008093A1000895F093A1008091B000909119
:10108000B100803860E0960708F0BBC18C5F9F4FCD
:10109000813860E0960710F080E890E08093B0001F
:1010A0009093B1006091A6007091A700A62FA72B86
:1010B00029F0F093A600F093A700F2CE6BEA72E05D
:1010C0006093A6007093A700EBCE8091A300839558
:1010D0008093A300843008F408958091B00090912B
:1010E000B1008F939F93885F9F4F813860E0960790
:1010F00010F080E890E08093CF009093D0009F9113
:101100008F918093B0009093B100EDDE8091CF007D
:101110009091D0008093B0009093B100F093A6001E
:10112000F093A700F093A100F093A200F093A30026
:1011300060918700709188006093A8007093A90067
:101140006093A4007093A50083E08093A000A8CED4
:10115000B8DEF7DE0EF455C108F00895F093A10053
:10116000F093A200F093A300F093AC00F093AD00D5
:1011700080918700909188008093AA009093AB00A3
:101180008093A8009093A90084E08093A000089524
:10119000CCDE6091A6007091A700685F7F4F7F70E2
:1011A0006093A6007093A70059D008F079CEF09311
:1011B000A100F093A200F093A3008091870090918A
:1011C00088008093A4009093A50085E08093A00000
:1011D00067CEABDEB6DE0EF414C108F00895809140
:1011E000AC009091AD008093AE009093AF00F0936F
:1011F000AC00F093AD00F093A100F093A200F09347
:10120000A30080918700909188008093A80090931C
:10121000A90086E08093A000089587DE6091A60073
:101220007091A700685070407F706093A600709323
:10123000A70014D008F034CEF093A100F093A200E0
:10124000F093A30080918700909188008093A40080
:101250009093A50087E08093A00022CE8091A1000A
:101260009091A2008F5F9F4F8093A1009093A20066
:10127000803041F4943031F4F093A100F093A20057
:10128000089408958894089550DE5BDE0EF4B9C08A
:1012900008F0089560918700709188008091AA00FD
:1012A0009091AB00681B790B7F7073FF04C0706F67
:1012B000709561957F4F772309F0A3C0613208F0E4
:1012C000A0C06091AE007091AF00CC2777FF04C042
:1012D000C395709561957F4FC093CE006093AE002B
:1012E0007093AF008091AC009091AD00CC2331F4AD
:1012F00097FF87C0909581959F4F02C097FD81C051
:101300008093AC009093AD006817790718F4861BA2
:10131000970B04C0DB01A81BB90BCD01992309F081
:1013200070C0813208F06DC06091AE007091AF0066
:101330008091AC009091AD00860F971F9695879590
:101340008093AE009093AF006091AE007091AF00BB
:10135000683681E0780708F454C0DB01C1E0A030B2
:1013600080E2B80730F4A60FB71FC395C531B8F3B4
:1013700048C0A050B042CD01880F991F6817790767
:1013800008F4CA95CC23E9F1C093CD00AA27BB2766
:101390008C2FA60FB71F8A95E1F7A050B042B7FF78
:1013A00003C0B095A195BF4FBB2359F5A13848F5AF
:1013B0006091870070918800AA27BB27C091CD005B
:1013C000A60FB71FCA95E1F7BF708091CE008823A2
:1013D00031F4882799278A1B9B0BDC01BF70A093EF
:1013E000CB00B093CC00DCD9809184008F798093BE
:1013F00084008DE58093D200A6D71DD008F4AACA38
:1014000082CA80918400817880938400C9D93DD7B5
:1014100077D73BD775D739D773D737D7089586BFD6
:101420009FEFA89586B787FD04C09A95D1F70894D9
:10143000089588940895F6BFF1B98CE080B984EAE4
:10144000EEDFF8F181B1887F8830D9F58CE683B979
:1014500084E8E5DFB0F181B1887F883191F58EE0D5
:1014600083B984E8DCDF68F181B1887F883249F58F
:1014700084EAD5DF30F181B1887F803111F58DE6C6
:1014800083B984E8CCDFE8F081B1887F8034C9F487
:1014900084ECC5DFB0F081B1887F803591F483B1F1
:1014A0008F708093880084E8BADF58F081B1887F1C
:1014B000883539F483B18093870084E986BF8894A6
:1014C000089584E986BF0894089580919400882344
:1014D00041F0809195009091CF006091D0000FC0B5
:1014E00008958091840085FF08955AD980918400E1
:1014F0008F7D809384008FEF8093960008958630CF
:1015000008F06CC0983370E0670708F467C0913842
:1015100070E0670708F062C0A82FC92FD62F80910E
:10152000840085FF0CC0809196008A1741F47FB734
:10153000F8947F933FD020687F917FBF08957FB755
:10154000F8947F932DD98BE18A95F1F7287F206855
:10155000A23030F0A43010F0246003C0216001C03C
:101560002260A13051F0A23041F0A33021F0A4302C
:1015700011F0959803C0C09801C093988BE18A95AB
:10158000F1F7A0939600809184008062809384009C
:1015900011D025FD02C0EAE203C0F0939800EAE30F
:1015A0008F2E8FEF84BD80E488BF81E085BD7F9161
:1015B0007FBF089580E293E08C1B9D0B25FD04C046
:1015C0007AE29F1370E201C07AE3C09580951E0114
:1015D0002C01709365001D7F11600895E1D8809102
:1015E00084008F7D809384008FEF80939600089510
:1015F00000240FBEEFE5F4E0FEBFEDBF0292E0363F
:10160000F00509F4EEE1E015F005C1F781B780932C
:101610006000A4B6F4BF81E088BB81E087BBF5BB66
:1016200088E084BB8AE282BB8AEB81BB82E083BF15
:1016300081E08EBDF5BD88E181BD88E081BD60D6C9
:1016400082D66CD6D4D87894A0FAAF1226F41DD6E0
:1016500025D62DD61EC0A2FE04C029D616D60068F7
:1016600018C0A1FE02C02AD614C0F894A3FE05C07B
:101670000CD60BD61CD61BD6FBCF3FD64A2D58E036
:1016800040FF0CD640FD1AD639D646955A95C1F77B
:10169000F4CFB2D8B998BA980D7F35D784E588BF12
:1016A00089BFA5D883E085BF80E48BBFBB24137EB0
:1016B000F0936600F0936700A89514FD0AC07BD8EC
:1016C000809167008837C1F78CE380936700EFD57E
:1016D000F3CF71D6C0917900D0917A00209631F77E
:1016E0008AE0B81648F312FFF6BF812F8C7009F01C
:1016F000FBBFE4D5E3D5E2D50B7F52D8E2D80D7F0E
:10170000B99ABA98F0936600F0936700A89514FD13
:101710000DC036D9BB20D1F74ED8809167008E31ED
:10172000A9F73ED8EDD5C3D5B9D5B3CF04FD05D6BD
:1017300005FD09D69BD6BB2049F3209611F4CFD8DE
:10174000E1CFB2D82DD880B7886080BF3798BA98DB
:10175000B998CEE8D0E06E010260FDD0F09375003C
:10176000F0937600F093770082E0B82E86E08093C5
:1017700062008CE08093610081E085BD17FD46C06A
:10178000EED087E087B9C09A10FD9598E6D080E04A
:1017900087B9F894287F226062B3939A72B385B3B5
:1017A000AB9895B38913979A6713C0987894D7D05C
:1017B00086E087B9959A10FD9398CFD087E087B9D6
:1017C000F894287F216068B3C09A78B382B3979861
:1017D00092B38913949A671395987894C0D080E057
:1017E00087B9939A10FDC098B8D086E087B9F8946D
:1017F000287F246062B3959A72B382B3949892B3AF
:101800008913AB9A67139398789445C0A6D080E06B
:1018100087B9F894287F216062B3939A72B385B335
:10182000AB9895B38913949A67139598789497D049
:1018300087E087B9C09A10FD93988FD086E087B96A
:10184000F894287F226062B3959A72B382B3949819
:1018500092B38913979A6713C098789480D080E0E8
:1018600087B9939A10FD959878D087E087B9F89456
:10187000287F246068B3C09A78B382B3979892B3F4
:101880008913AB9A67139398789469D086E087B9E7
:10189000959A10FDC09880916100803010FF71F121
:1018A000E601209661F18C30C8F483958093610045
:1018B000629686ED90E060917700709176007C5F93
:1018C0007093760021F4605FD9F060937700603107
:1018D00070F0703360F083E290E009C01F7BF093FA
:1018E0007700F0937600BA986B9687E593E0C81777
:1018F000D90710F06C0142CF6E0140CFFECE21CF50
:101900004FD70D7FFAD4F9D4D9D4B0D52096D1F7DA
:10191000C0CEE6E620FD959A21FDC09A22FD939A5D
:1019200094989798AB98BA9A81E0809362005EC0D1
:1019300016FD09C0BC3030F0BBE0AB1708F4AB2F8C
:10194000ECD647C0BA9AF093610070917500715F50
:1019500016FD70937500106449C01F7D01C01062B0
:1019600080916200815050F08093620016FF19C090
:10197000C0E0DFEFAF2E00D7A3E02AC0E63611F4B7
:10198000E8E6BA9816FD3EC07BE1D6D604D779E5E5
:10199000D3D600FFBECF14FD69D568B1612765FDC0
:1019A000F8CFA0917000B0917100B695A795B6954B
:1019B000A795A330BF0750F051F0AA31BF0708F038
:1019C000AAE1AC3020F073E3B7D602C0A3E0A5D6FD
:1019D000BA2F00FFADCF14FD49D568B1612765FD71
:1019E00003C0AB17AF1FF5CFAA9599F7AED516FF79
:1019F000D2D6809162008F131E7FBF1208958F91FF
:101A00008F917BCEC0E0D0E070E0A72E8091610086
:101A1000823030F47091750080E090E860E03ED64E
:101A2000ABD6B9D6C0E0D8EB7BE0A72EA5D6AFEFFA
:041A3000CFCFDECD69
:101C0000E4E0FFE5FEBFEDBF00E0ECEBFEE0C0E886
:101C1000D0E0A0E6B0E042E045BD5CEE539571F047
:101C200040EC04BD48BFA03619F0E8B6E6FC46C05B
:101C30008299F9CF04BD48BFE8B6E6FCE1C1829BBA
:101C4000FBCF04BD48BFE8B6E6FCE8CF8299FBCFE6
:101C500034B404BD48BFE8B6E6FCD2C1829BFBCFDA
:101C600024B4022C030C802C07940694402C069478
:101C70008008809420943094409460EE83E084BC8B
:101C800048BFE8B6E6FCBCC1829BFBCF84BC48BF22
:101C9000E8B6E6FCC3CF8299FBCF0894E8B6E6FC31
:101CA00023C0829BFBCFE8B6E6FCB8CF8299FBCF7E
:101CB0008894E8B6829BE6FC17C0FBCF43BC87E163
:101CC000929A8A9A34BC48BFE8B6E6FEFDCF929855
:101CD00024BC48BFE8B6E6FEFDCF8A9589F7C0E68A
:101CE000D0E060E081E00BC0679548F6815068F570
:101CF0005CEE0994CA17DB07D1F0699188E066951C
:101D0000929A34BC48BFE8B610F0E7FC02BBE6FE8E
:101D1000FACF929808F0929A24BC48BFE8B610F027
:101D2000E7FC02BBE6FEFACF8A9549F7E3CF929A29
:101D300034BC48BFC0E8D0E0A0E6B0E0E8B6E7FEBB
:101D4000FDCF8A9802BB6ACF80E060E898CFECEBC9
:101D5000FEE0C0E8D0E0F8CF009000000090000066
:101D60000090000000900000009000000090000033
:101D70000090000000900000000000006B3121F78F
:101D8000562E3796E1CF962E56263496DDCF762EF8
:101D900056263496D9CF662E56263496D5CF6E3039
:101DA000B1F656263596D0CF69935626CF3584E0C6
:101DB000D80768F681E0681A700A09F43C96C4CF27
:101DC0006511C5CFC0E8D0E0699199918991FD0175
:101DD0007BE170839182028372E073837EE074837F
:101DE0006583068317966130A1F48BE0838388E0D6
:101DF0008D93EF01ECEDFFE185918D93E43EE1F7EA
:101E0000FE01819161918627EA17FB07D9F78D932F
:101E10009ECF6D3151F5792F90E0039683839283A5
:101E200003970D938A95E9F789916991603380074B
:101E300094E0790779F460878991803059F4699149
:101E400060308EE131F0613083E919F0623087E073
:101E500009F482870D93D5CF8017900709F5D990A3
:101E6000C9905601AA0CBB1CCCCF6330E1F06230A4
:101E700041F2603131F2613121F2663069F3623151
:101E8000F1F1833F73E0970758F4643109F166314B
:101E900069F127966531C1F16331F9F10000000065
:101EA00080EC8683AECF90398FE071F0913982E07B
:101EB00059F092398AE041F0943982E329F0903860
:101EC00080E011F0913861F78D9383E0838399CF9F
:101ED00049D0EF01F5018FD076FDFDCF65916D936F
:101EE0000197E1F75F01FE010D938BCF3BD011E02D
:101EF0003ED06DB36D930197D9F70D9382CF47D044
:101F0000000080E092E0689416E06FEF0EF06991B7
:101F10002ED00197D1F7E89474CF8F7F61E07F01D5
:101F2000F5010990199068D032960297D1F70F0108
:101F3000F501500163E0E03C7FE1F70719F058D06C
:101F4000F7015FCF0BD065E009D061E107D0F8CF92
:101F500077B770FDFDCFE199FECF0895F9DF67BF38
:101F6000E8950895039692838383039708953AD062
:101F7000DFBACEBA0894C01ED01E762FE09A6DB399
:101F8000671312FF08957DBBE29A1CBB08957F0181
:101F9000E0E0FCE163E0E054F0402ED0E1F76F01B7
:101FA000F70108950000000000000000000000009C
:101FB0000000000000000000000000000000000021
:101FC000687474703A2F2F6769746875622E636F36
:101FD0006D2F73696D2D2F7467792F00415652490B
:101FE00053505F3277B770FDFDCFE199FECF089572
:101FF00003D065E001D061E1F5DF67BFE8950895A2
:00000001FF
